:020000040000fa
:020000040040ba
:10000000f0ff4520254340005b4a40002b54400050
:10001000276e4000f37140000373400000000000b1
:10002000000000000000000000000000234340002a
:10003000976740000000000023434000197b400008
:100040002343400023434000234340002343400018
:10005000234340002343400023434000416b4000c2
:10006000234340000000000023434000234340009e
:1000700023434000234340002343400023434000e8
:1000800023434000234340002343400023434000d8
:1000900023434000234340002343400023434000c8
:1000a00023434000234340002343400023434000b8
:1000b00023434000234340002343400023434000a8
:1000c0002343400023434000234340002343400098
:1000d0002343400023434000234340002343400088
:1000e0002343400023434000234340002343400078
:1000f000e16a400023434000234340002343400083
:100100002343400023434000234340002343400057
:100110002343400023434000000000000000000093
:100120002343400023434000234340002343400037
:1001300023434000234340000000000023434000cd
:100140002343400023434000234340002343400017
:100150002343400023434000234340002343400007
:0801600023434000234340004b
:020000040000fa
:020000040040ba
:10016800f8b500bff8bc08bc9e467047297340002c
:10017800f8b500bff8bc08bc9e4670470573400040
:020000040000fa
:020000040040ba
:08018800202f0000010000001f
:020000040000fa
:020000040040ba
:100190004f4e00004f4646004b657920276a273aac
:1001a0002054696d656f7574000000005b505752f4
:1001b0005d204946423a20636f6e6669726d207415
:1001c000696d656f75742c2063616e63656c6c6519
:1001d000640000005b5057525d20534f4d3a20633e
:1001e0006f6e6669726d2074696d656f75742c2011
:1001f00063616e63656c6c65640000005b50575210
:100200005d2041494d3a20636f6e6669726d2074be
:10021000696d656f75742c2063616e63656c6c65c8
:10022000640000004b6579202772273a20636f6ec7
:100230006669726d2074696d656f75742c206361d9
:100240006e63656c6c656400312e322e33000000e5
:1002500052656672657368202d3e2078424c4420ba
:100260005b432e485d56657273696f6e3a20257345
:100270002c205469636b3d256c7500004b6579201b
:100280002730273a205469636b3d256c75000000c8
:100290004b6579202731273a2053656e64696e6774
:1002a0002078434c492070696e672073656c662d19
:1002b000746573740000000070696e67203132331a
:1002c000343500005b4652414d5d205772697469b8
:1002d0006e6720257520627974657320746f2030f5
:1002e000782530366c583a005b4652414d5d2057b8
:1002f0003a202530325820253032582025303258c7
:1003000020253032582025303258202530325820d0
:100310002530325820253032580000005b465241cb
:100320004d5d205772697465204f4b005b4652410a
:100330004d5d205772697465204641494c45442003
:10034000287374617475733d256429005b465241be
:100350004d5d2052656164696e6720257520627964
:100360007465732066726f6d2030782530366c5856
:100370002e2e2e005b4652414d5d20523a202530f4
:10038000325820253032582025303258202530323e
:100390005820253032582025303258202530325808
:1003a00020253032580000005b4652414d5d2052fe
:1003b000656164204641494c45442028737461744a
:1003c00075733d25642900005b424155445d20550d
:1003d00041525430202d3e20256c752062707300f0
:1003e0005b424155445d2053657269616c5365748d
:1003f0007570204641494c454420666f7220256c3b
:1004000075206270730000004b6579202772273acf
:1004100020507265737320272127207769746869db
:100420006e20327320746f20636f6e6669726d2068
:1004300072657365740000004b6579202721273aa7
:1004400020636f6e6669726d65642c2072657365da
:100450007474696e672e2e2e000000004b657920a3
:100460002721273a2074696d656f757400000000bc
:100470004b657920276a273a205072657373206193
:100480006761696e2077697468696e2032732074c1
:100490006f20666f726365206a756d7000000000e2
:1004a0004b657920276a273a20476f7421000000a6
:1004b0004b657920276a273a20466f726365206a68
:1004c000756d7020746f2061707020307825303821
:1004d000580000005b5057525d204946423a2025a3
:1004e0007320202870726573732027692720616745
:1004f00061696e20746f207475726e2025732900f7
:100500005b5057525d204946423a204f4646000014
:100510005b5057525d204946423a204f4e00000042
:100520005b5057525d20534f4d3a202573202028b1
:1005300070726573732027652720616761696e207b
:10054000746f207475726e20257329005b505752aa
:100550005d20534f4d3a204f464600005b505752a6
:100560005d20534f4d3a204f4e0000005b505752d4
:100570005d2041494d3a2025732020287072657313
:10058000732027612720616761696e20746f207472
:1005900075726e20257329005b5057525d204149ca
:1005a0004d3a204f464600005b5057525d2041496e
:1005b0004d3a204f4e0000005b78424c445d204194
:1005c00075746f626f6f742061726d65643a207329
:1005d0006c6f74203020696e2025757320756e6ce9
:1005e00065737320436f6d6d616e64206f7220437d
:1005f0006f6e736f6c654b657920697320646574e9
:1006000065637465642e00007854502b78434c4920
:100610002072656164792e2020434d443d30782559
:100620003034582020524553503d307825303458ce
:100630000000000078424c44205b432e485d566524
:100640007273696f6e3a2025730000004857205678
:10065000657273696f6e20312e312e3000000000fc
:100660005b5057525d20426f6f743a20534f4d3d9f
:10067000257320204946423d2573202041494d3da8
:10068000257300000d0a0000556e6b6e6f776e20ab
:10069000636f6d6d616e643a20220000222e205738
:1006a00072697465202268656c702220666f722002
:1006b00061206c697374206f6620617661696c617a
:1006c000626c6520636f6d6d616e64730000000085
:1006d0001b5b2575256300001b5b73001b5b7500ae
:1006e0003e200000200000001b5b43001b5b440019
:1006f0001b5b50002d6800002d2d68656c7000009c
:100700001b5b400048656c70206973206e6f74201d
:10071000617661696c61626c65000000202a2000ce
:10072000436f6d6d616e64202268656c702220726b
:1007300065636569766573206f6e65206f72207ad8
:1007400065726f20617267756d656e74730000006d
:1007500068656c70000000005072696e74206c69ee
:100760007374206f6620636f6d6d616e647300003b
:100770005b78424c445d20536c6f742025753a20a1
:100780007625752e25752e2575206275696c643d5c
:10079000256c752073697a653d256c7520637263dd
:1007a0003d307825303858005b78424c445d20530a
:1007b0006c6f742025753a207665726966792046db
:1007c00041494c4544202825732900005b78424c60
:1007d000445d20426f746820736c6f74732066618f
:1007e000696c6564202d2073746179696e67206976
:1007f0006e20626f6f746c6f616465722e00000012
:1008000078424c44000000006c69620068775f69c0
:1008100064000000736c6f74730000007365635fa5
:10082000737a000073305f686472000073315f6830
:100830006472000073305f6d6178000073315f6d2a
:10084000617800006864725f737a00007374617489
:100850006500000077725f6d61780000626f617201
:10086000645f6964656e74006f6b00006261642090
:10087000736c6f7400000000657272005b78424c0c
:10088000445d2045726173696e6720736c6f7420dc
:1008900025752040203078253038582073697a65d6
:1008a0003d3078253038582e2e2e00005b78424c93
:1008b000445d20457261736520736c6f74202575eb
:1008c000204f4b00726573756c740000696d675f33
:1008d000737a0000637263003f000000735f6e6113
:1008e0006d6500007772697474656e00616464728e
:1008f000000000006c656e0064617461000000001f
:10090000636f756e740000005b78424c445d205745
:10091000726974653a2061646472203078253038d9
:1009200058206e6f7420696e20616e7920736c6f31
:10093000740000005b78424c445d20577269746516
:100940003a206f766572666c6f7720736c6f7420d7
:10095000257520656e643d307825303858000000dc
:1009600078424c4420696e666f0000006270696ec8
:1009700067000000457261736520736c6f74205bc3
:10098000307c315d000000006265726173650000bb
:1009900056657269667920736c6f74205b307c31a8
:1009a0005d00000062766572696679004a756d7057
:1009b00020746f20736c6f74205b307c315d00009d
:1009c000626a756d70000000424c2073746174653a
:1009d0000000000062737461747573005265616495
:1009e00020666c61736800006272656164000000db
:1009f000426f6f7420636f756e74000062636f7571
:100a00006e740000426f6f7420686973746f72793e
:100a10000000000062686973746f72790000000062
:100a20005b78424c445d20496e6974204f4b2e2008
:100a3000736c6f74733d25752057525f4d41583d5f
:100a40002575204844525f535a3d2575000000002b
:100a50005b78424c445d20424c2072657175657331
:100a600074656420766961207368617265642052e0
:100a7000414d202d2073746179696e672e0000004e
:100a80005b78424c445d20416374697669747920d7
:100a90006465746563746564202d2073746179697d
:100aa0006e6720426f6f744d6f64652e000000000a
:100ab0005b78424c445d20536c6f74202575206236
:100ac0006f6f74696e6720696e202564732e2e2ef9
:100ad000000000005b78424c445d204a756d7069ef
:100ae0006e6720746f20736c6f742025752e2e2e08
:100af000000000005b78424c445d20426f6f744df3
:100b00006f6465202d206175746f626f6f74207241
:100b10006574727920696e202564732e2e2e000074
:100b20005b78424c445d2049646c652074696d6556
:100b30006f7574202d207265747279696e672061fb
:100b400075746f626f6f742e0000000049444c454d
:100b500000000000524541445900000057524954da
:100b6000494e4700444f4e4500000000564552494b
:100b700046494544000000004552524f52000000d3
:100b80005b78424c445d205665726966793a20660e
:100b90006c6173685f726561642068656164657229
:100ba000204641494c4544005b78424c445d205608
:100bb00065726966793a206d616769633d307825b1
:100bc000303858206578706563743d30782530384a
:100bd000580000005b78424c445d2056657269669f
:100be000793a2068775f69643d257520657870657e
:100bf00063743d25750000005b78424c445d2056cf
:100c000065726966793a20696d6167655f73697ab3
:100c1000653d2575206d61785f73697a653d257541
:100c2000000000005b78424c445d205665726966a6
:100c3000793a206c6f61645f616464723d3078253d
:100c4000303858206578706563743d3078253038c9
:100c5000580000005b78424c445d2056657269661e
:100c6000793a206864725f6372632063616c633dec
:100c70003078253038582073746f7265643d307851
:100c800025303858000000005b78424c445d205607
:100c900065726966793a20696d675f637263206384
:100ca000616c633d3078253038582073746f7265fd
:100cb000643d307825303858000000005b78424ca5
:100cc000445d205665726966793a20414c4c20504b
:100cd000415353004f4b00004552525f4d4147492d
:100ce000430000004552525f48575f4944000000ee
:100cf0004552525f53495a45000000004552525f29
:100d00004844525f435243004552525f494d475f4a
:100d1000435243004552525f414444520000000098
:100d20004552525f554e4b4e4f574e00556e6b6eaf
:100d30006f776e005b424f4f545d204e6f74207290
:100d400065636f7264656420796574005b424f4f20
:100d5000545d202d2d2d2d20426f6f7420496e661d
:100d60006f202d2d2d2d00005b424f4f545d2043f1
:100d70006f756e742020203a202575202830782544
:100d800030345829000000005b424f4f545d20432f
:100d9000617573652020203a203078253032582044
:100da00028257329000000005b424f4f545d204806
:100db0006973746f7279203a205b305d3d25303263
:100dc00058205b315d3d25303258205b325d3d253a
:100dd000303258205b335d3d25303258205b345d26
:100de0003d25303258205b355d3d25303258205b43
:100df000365d3d25303258205b375d3d2530325819
:100e0000000000005b424f4f545d202d2d2d2d2df5
:100e10002d2d2d2d2d2d2d2d2d2d2d2d2d2d2d002f
:100e2000504f522f424f52004261636b75702f57e3
:100e3000616b6555700000005761746368646f678b
:100e400000000000536f6674776172650000000057
:100e500055736572284e5253542900005b78434cf9
:100e6000495d203e3e20524553502020636d643d35
:100e7000307825303258207365713d2575207374a4
:100e80003d30782530325820667261673d25752fd8
:100e90002575202025752062797465730000000097
:100ea0005b78434c495d2078434c495f496e6974d7
:100eb0003a20656d626564646564436c694e65776c
:100ec000206661696c6564005b78434c495d2078fd
:100ed000434c495f496e69743a204f4b20206d6145
:100ee000785f636f6d6d616e64733d257520206d55
:100ef00061785f636d645f7374723d257520206651
:100f00007261675f6d61783d257500005b78434cc9
:100f1000495d2078434c495f526567697374657217
:100f2000436f6d6d616e643a2075706461746564c1
:100f30002020736c6f743d25752020636d645f699c
:100f4000643d30782530325820206e616d653d2734
:100f5000257327005b78434c495d2078434c495ffb
:100f60005265676973746572436f6d6d616e643a43
:100f7000207461626c652066756c6c005b78434c14
:100f8000495d2078434c495f5265676973746572a7
:100f9000436f6d6d616e643a20656d626564646572
:100fa00064436c6941646442696e64696e6720667b
:100fb00061696c656420666f7220272573270000c5
:100fc0005b78434c495d2078434c495f52656769c3
:100fd00073746572436f6d6d616e643a20736c6fec
:100fe000743d25752020636d645f69643d3078250c
:100ff00030325820206e616d653d27257327000033
:101000005b78434c495d203c3c2069643d30782549
:1010100030345820206469723d30782530325820b1
:1010200020636d643d30782530325820207365711f
:101030003d257520206c656e3d2575005b78434c21
:10104000495d202020206e6f742052455155455334
:1010500054202d2069676e6f72696e670000000072
:101060005b78434c495d20202020636d645f696498
:101070003d307825303258204e4f542072656769d4
:10108000737465726564202d3e20554e4b4e4f574c
:101090004e5f434d440000005b78434c495d202087
:1010a000202064697370617463683a20636d645fc3
:1010b00069643d30782530325820736c6f743d255b
:1010c00075206e616d653d27257327005b78434c65
:1010d000495d2053656e6452657175657374202097
:1010e000636d645f69643d30782530325820207329
:1010f00065713d25752020636d643d2725732700ac
:101100006563686f00000000322e302e3000000052
:10111000667700006877000061636b004c69737448
:1011200020616c6c207265676973746572656420f8
:10113000636f6d6d616e6473000000004563686fde
:1011400020612033322d6269742074696d65737477
:10115000616d700070696e67000000005265706f0d
:101160007274206669726d776172652f686172644e
:10117000776172652076657273696f6e000000009a
:1011800076657273696f6e005265626f6f7420646a
:101190006576696365205b64656c61795f6d735d1d
:1011a000000000007265626f6f7400007854505f39
:1011b000496e69742050583d30782530325800000f
:1011c0004552522053544152543220307825303207
:1011d0005800000045525220544d20676f743d3036
:1011e0007825303258206578703d30782530325877
:1011f00000000000455252207061796c6f616420dc
:101200006f766572666c6f7700000000454343207f
:10121000636f7272656374656420314220284352a3
:10122000433136207265747279290000455252208c
:1012300043524331362063616c633d30782530344e
:101240005820726563763d307825303458000000b0
:101250004552522053544f50312030782530325867
:10126000000000003c3c20476f742069643d3078ea
:1012700025303258206c3d25750000004552522023
:1012800053544f503220307825303258000000003f
:1012900054494d454f55542073746174653d256420
:1012a000000000005b4152515d20496e697420745a
:1012b0006f207573650000005b4152515d205345fe
:1012c0004e44207365713d25752069643d30782555
:1012d000303258206c656e3d257500005b415251df
:1012e0005d2052455452414e534d4954207365710f
:1012f0003d25752072657472793d257500000000ea
:101300005b4152515d2041434b20726563656976b4
:101310006564207365713d25750000005b41525185
:101320005d204e41434b207265636569766564209c
:101330007365713d257500005b4152515d20544934
:101340004d454f5554207365713d257500000000d3
:101350005b4152515d204641494c454420736571c3
:101360003d2575206166746572202575207265744f
:1013700072696573000000005b4152515d20525854
:101380002041434b207365713d2575005b415251ef
:101390005d205258204e41434b207365713d2575a9
:1013a000000000005b4152515d2052535420667290
:1013b0006f6d2072656d6f7465203e20736f66746b
:1013c0002d726573657400005b4152515d20545865
:1013d0002041434b205365713d2575005b415251bf
:1013e0005d205458204e41434b205365713d257577
:1013f000000000005b785d20000000005541525461
:10140000325f52580000000055415254325f545828
:101410000000000055415254305f52580000000057
:0914200055415254305f5458004c
:020000040000fa
:020000040040ba
:02142a00704709
:020000040000fa
:020000040040ba
:10142c0070b588b006f030ff0446c14b1b78012b19
:10143c0012d0c04b1b78012b1ed0bf4b1b78012b3d
:10144c0029d0be4b1b78012b34d0bd4b1b78012b04
:10145c003fd0bc4cbc4d53e0bc4b1a68831ab3f55f
:10146c00fa6fe6d90146ba4805f00cfe0023b74adc
:10147c001360af4a1370dce7b64b1b68e31ab3f585
:10148c00fa6fdad9b44805f0fdfd0023b14a1360b8
:10149c00a84a1370d1e7b14b1b68e31ab3f5fa6f86
:1014ac00cfd9af4805f0eefd0023ac4a1360a24a39
:1014bc001370c6e7ab4b1b68e31ab3f5fa6fc4d9cc
:1014cc00a94805f0dffd0023a64a13609b4a137060
:1014dc00bbe7a64b1b68e41ab4f5fa6fb9d9a4485c
:1014ec0005f0d0fd0023a14a1360954a1370b0e7b4
:1014fc00a0f16103dbb225fa03f313f0010f37d12e
:10150c00204606f0d3f90028c0f24083c0b27228fe
:10151c00f6d86028ecd8212800f0db8123d80a28e3
:10152c0001d00d28ecd1934806f096fe0023874a93
:10153c0013607f4a1370874a13607e4a1370874a80
:10154c0013607d4a1370874a13607c4a1370874a74
:10155c0013607b4a137006f097fe02468649874853
:10156c0005f090fdcce7a0f13003dbb2042bc7d81b
:10157c000a386828c4d801a353f820f0331540006a
:10158c000d1540000d154000331540000d154000a1
:10159c000d1540000d1540000d1540000d154000b7
:1015ac000d1540000d1540000d1540000d154000a7
:1015bc000d1540000d1540000d1540000d15400097
:1015cc000d1540000d1540000d1540000d15400087
:1015dc000d1540000d154000df1840000d154000a2
:1015ec000d1540000d1540000d1540000d15400067
:1015fc000d1540000d1540000d1540000d15400057
:10160c000d1540000d1540000d1540000d15400046
:10161c000d1540002d17400091174000a5174000f4
:10162c001b1840006d1840000d1540000d154000b2
:10163c000d1540000d1540000d1540000d15400016
:10164c000d1540000d1540000d1540000d15400006
:10165c000d1540000d1540000d1540000d154000f6
:10166c000d1540000d1540000d1540000d154000e6
:10167c000d1540000d1540000d1540000d154000d6
:10168c000d1540000d1540000d1540000d154000c6
:10169c000d1540000d1540000d1540000d154000b6
:1016ac000d1540000d1540000d1540000d154000a6
:1016bc000d1540000d1540000d1540000d15400096
:1016cc000d1540000d1540000d1540000d15400086
:1016dc000d1540000d154000251b400073184000ef
:1016ec000d1540000d154000011a40000d1540006d
:1016fc000d1540000d1540008919400033194000ac
:10170c000d1540000d1540000d1540000d15400045
:10171c000d1540000d1540000d154000bf18400080
:10172c0006f0b2fd0146164805f0acfce8e600bf39
:10173c00394b4020384b4020374b4020364b402013
:10174c00354b4020001a0e4013030200084b40207a
:10175c0098014000044b4020ac014000004b40205d
:10176c00d4014000fc4a4020fc014000f84a4020d3
:10177c0024024000e449402048024000500240004e
:10178c007c024000aa4805f07dfcaa4b42220221b3
:10179c00a94804f045fcb3e606f076fd0df11703fd
:1017ac000df11f0ca54ea64906fb0010020c03f808
:1017bc00012f6345f8d110220821a24805f062fce4
:1017cc009df81f3004939df81e3003939df81d3037
:1017dc0002939df81c3001939df81b3000939df8eb
:1017ec001a309df819209df81810974805f04afcfe
:1017fc00082206a9102004f02ffd014618b99348c1
:10180c0005f040fc7ce6924805f03cfc78e61022a2
:10181c000821904805f036fc082206a9102004f097
:10182c008ffe0146c0b99df81f3004939df81e3001
:10183c0003939df81d3002939df81c3001939df885
:10184c001b3000939df81a309df819209df8181044
:10185c00814805f017fc53e6804805f013fc4fe671
:10186c0004f094fb4ce67e48037801337d4aa2fbde
:10187c00031202f4fe7101eb92029b1a03707a4a76
:10188c0052f8236006964ff40063079306f0d8fcd9
:10189c000028fbd1002106a805f0eaf820b131465a
:1018ac00724805f0effb2be63146714805f0eafb78
:1018bc0026e6704b1b78002b7ff422ae06f0e4fc7e
:1018cc006d4b18606b4b01221a706c4805f0dafbfb
:1018dc0016e6684b1b78012b7ff412ae06f0d4fc95
:1018ec00654b1b68c31ab3f5fa6f08d9644805f049
:1018fc00c9fb0023604a13605e4a137000e661481e
:10190c0005f0c0fb06f09cfc0028fbd1bff34f8f09
:10191c005d49ca6802f4e0625c4b1343cb60bff3d1
:10192c004f8f00bffde706f0affc0146584b1b780c
:10193c0043b9584b1860564b01221a70564805f0a3
:10194c00a1fbdde5534b1e68861b3246534805f060
:10195c0099fbb6f5fa6f0dd8514e3146514805f04a
:10196c0091fb304603f0ecfe00234a4a1360484ad0
:10197c001370c5e54c4805f085fbf5e706f084fcd3
:10198c0006464a4bdb6bc3f30023494a12788ab9eb
:10199c004849494a002b08bf0a464748002b08bf54
:1019ac000146464805f06efb454b1e60404b01223c
:1019bc001a70a5e5424a1068301ab0f5fa6f15d8be
:1019cc0063b13a4b4ff480725a633e4805f05afbb0
:1019dc0000233b4a1360364a137091e5334b4ff4a6
:1019ec0080721a63384805f04dfbf1e7374805f073
:1019fc0049fbede706f048fc06462c4bdb6bc3f3ca
:101a0c004013334a1278002a68d12a492a4a002bfb
:101a1c0008bf0a462848002b08bf01462d4805f090
:101a2c0031fb2d4b1e602a4b01221a7068e500bf5a
:101a3c0090024000b8024000202840200d6619009a
:101a4c005ff36e3cc4024000e80240001c034000ff
:101a5c002c0340004c03400074034000a8034000da
:101a6c00344b4020cdccccccfc7f4000c803400094
:101a7c00e0034000354b4020f84a40200804400069
:101a8c005c0440003804400000ed00e00400fa055e
:101a9c00394b4020084b402070044000a00440000b
:101aac0000024200b00440009801400000140e40b7
:101abc00384b40209001400094014000d404400079
:101acc00044b40200005400010054000ac014000d4
:101adc00374b402020054000004b40202c4a10681a
:101aec00301ab0f5fa6f13d85bb12a4b20225a6327
:101afc00294805f0c7fa0023254a1360274a1370ba
:101b0c00fee4244b20221a63254805f0bbfaf2e7c9
:101b1c00244805f0b7faeee706f0b6fb0646224b72
:101b2c00db6bc3f38003214a12788ab92049214a1e
:101b3c00002b08bf0a461f48002b08bf01461e4851
:101b4c0005f0a0fa1d4b1e60184b01221a70d7e449
:101b5c001a4a1068301ab0f5fa6f13d85bb1124bf1
:101b6c0004225a63164805f08dfa0023134a1360b9
:101b7c000e4a1370c4e40c4b04221a63114805f08e
:101b8c0081faf2e7104805f07dfaeee708b070bd77
:101b9c00004b402000140e404c054000374b4020b9
:101bac005c054000d4014000000e0e40364b402036
:101bbc0090014000940140006c054000fc4a40201c
:0c1bcc0098054000a8054000fc01400006
:020000040000fa
:020000040040ba
:101bd8000368002b00f03f832de9f04f8bb00646d9
:101be800c46894f8333013f0020f40f0fe8043f0dd
:101bf800020384f83330216805f0c0fff5e0a5f151
:101c08004003dbb23e2b00f2eb80f76897f83330e5
:101c180023f0080387f83330a5f14103dbb2012b29
:101c280015d9432d75d0442d40f08880b7f83480fd
:101c3800f86906f0a7f9804580f0d28008f101081c
:101c4800a7f83480b049304605f098ffc8e0d6f8c8
:101c58000c80b8f80c30002be5d0412d10d0b8f826
:101c68000a30002bdfd0304605f0a0f9d8f8001074
:101c7800304605f083ffb8f80a10013989b20fe041
:101c8800b8f80a209a4259d0304605f08ff9d8f8aa
:101c98000010304605f072ffb8f80a10013189b219
:101ca800a8f80a1079b3b8f80c308b422ed3d8f8bc
:101cb800040006f073f982460028944b08bf9a4640
:101cc800504606f05ff981461ffa80fb5a46514696
:101cd800d8f81c0006f04af9d8f81c304ff0000a72
:101ce80003f80ba0a8f82090d8f81c10304605f08f
:101cf80045ffb8f82030a8f83030a8f834a03046ae
:101d080004f022fa8fe7dff804a2d9e7dff8fca194
:101d1800d6e7bb8e5bb9462d62d1b98e00295fd05c
:101d28000122304605f018fc0023bb8658e0013b31
:101d3800bb867749304605f021ffece7482d0ed1e8
:101d4800bb8e398c8b424bd2c91a002289b23046dd
:101d580005f002fc3b8cbb867e2d41d109e07e2d2f
:101d6800d9d197f83230312b00f0e381372b00f0ce
:101d7800e08197f83230342b00f0d081382b00f016
:101d8800cd8197f83230332b2ad1b7f83480b8f1a7
:101d9800000f25d0d7f81c90484606f0f3f8a0ebc2
:101da8000800411c42464944484405f0c7fa3b8ca8
:101db800013b3b84bb8e013bbb865649304605f050
:101dc800ddfe0de043f0080384f833305b2507e0bf
:101dd8007f2d33d0a5f12003dbb25e2b40f25a8170
:101de800304604f0b1f984f83250e28aa38a9a4264
:101df800c0f07c8100f080812269d55c01339bb200
:101e0800228bb3fbf2f102fb1133a38294f8333037
:101e180013f0080f7ff4f3ae94f832701b2f08bf4d
:101e28005b2d0cbf01270027ccd00d2d00f0f181d0
:101e3800ced8a5f10803dbb2022bcbd80a2d14bfec
:101e480000220122d6f80c8098f832300d2b01d1ef
:101e5800002ac5d10d2d14bf00230123eae1304625
:101e680003f094fd2c49304605f088feb8f8203080
:101e78008bb90023a8f82030d8f81c201370a8f8d4
:101e88003030a8f80a30a8f83430d8f800103046b6
:101e980005f074fea4e7d6f80c90b9f820100029d4
:101ea800e7d0d9f81c300093194413f8012b202ae5
:101eb80040f0a0818b42f8d1dbe7b9f80c30002b59
:101ec80000f08581d9f8042007924ff0010a0494a4
:101ed80005951d4614460696009e5146204606f076
:101ee80068f80190314606f06ff8002800f031815b
:101ef8000af1010a1ffa8afa5545eed2049c059d9b
:101f0800069eb9f80ca040e1ec064000f81340002a
:101f1800e8064000f006400084064000d8b10029d9
:101f280018bf5f460133b9f82020934219dad9f86f
:101f38001c2002eb030cd25c202aefd079b10028d8
:101f480014bf002207f00102002a18bf1746002a12
:101f580018bf6046e6e700228cf80020dfe76146fc
:101f6800e0e78246d9f81c30134400225a70002951
:101f78003ff47fafb9f82c20a2b1d9f8243002eb96
:101f8800820b0027009401950c461d4655f8271032
:101f9800204606f019f8e0b105375f45f6d1019df6
:101fa8002146009c7368002b4dd00891cdf824a0e1
:101fb80099f8333043f0100389f83330736808a96f
:101fc8003046984799f8333023f0100389f83330b6
:101fd8004fe72146009c2b46019d4fea870b03ebf8
:101fe80087031a69002addd01b7acbb999f83330f8
:101ff80043f0100389f83330baf1000f14d0964932
:10200800504605f0e1ff20b19449504605f0dcff49
:1020180050b9d9f824105944304605f0c7fc0be0f4
:10202800504604f05df9e1e7d9f824305b441f69b4
:10203800da6851463046b84799f8333023f0100330
:1020480089f8333015e7304605f012fb11e7b8f888
:102058002020b8f834309a427ff7c2ae8049304623
:1020680005f08cfd7f49304605f088fdd8f81c70d6
:10207800384605f087ffb8f83420811a481e013227
:102088003944384405f05af9b8f82030013ba8f82b
:102098002030a5e6f7683b8c02337a8c9342bff672
:1020a8009faed7f81c90484605f06cffba8ea0eb9f
:1020b800020808f10100013209eb0801484405f063
:1020c8003df93b8c01333b843b8e01333b86fb69f6
:1020d80003f80850bb8e23b9336829463046984721
:1020e8007ee66149304605f049fdf5e7218b0a4453
:1020f80092b293427ff480ae94f8333013f0010f1c
:1021080009d000232384e269137094f8333023f054
:10211800010384f833300bb0bde8f08fb98e002985
:102128003ff45eae0122304605f016fa0023bb8666
:1021380056e6bb8e398c99427ff61bae04e6019cad
:10214800039d049f05990846029b184405f0f6f87c
:102158003de0049c2b46059d069e5a1ea9f80c20be
:102168009a450dd0ddf804a0504605f00bff411c40
:1021780050465144079bca1a039b9a1a05f0def889
:10218800b9f80ca0baf1000f21d0d9f804300593a2
:102198000194544603950497ddf808a01f4621468c
:1021a800384605f0fbfe054605f0ecfe421ced1b2b
:1021b8002a44b9f808309b1a9a45c0d9013ca4b200
:1021c800a9f80c40002cead1019c039d049f029ab7
:1021d8000099d9f8040005f0c9feb9f80c300133ac
:1021e800a9f80c30b9f820307bb9d9f81c30002296
:1021f8005a703ee6009805f0c5feb9f8083003931a
:10220800421c02929342bff458ae00210b46084686
:102218008de60a2d14bf00220122d6f80c800d2d60
:1022280014bf0023012398f832100a2902d1002b89
:102238007ff4d6ad53ea020b7ff411ae082d3ff4bc
:1022480006af7f2d3ff403af092d7ff4c9ad3046ab
:1022580003f09cfbc4e57047f4064000f806400014
:0c226800ec064000f006400000074000bb
:020000040000fa
:020000040040ba
:04227400002070478f
:020000040000fa
:020000040040ba
:102278002de9f04f2ded0a8b92ed008b8db01e46a7
:10228800b5eec08b0b69d1f808a0cc680590f1eecb
:1022980010fad1e9009b069307d419f0040f30d146
:1022a80019f008052fd0202302e02d23b1ee488b2a
:1022b80023700af1ff32012518ee903a18ee100a41
:1022c80023f00041bc4b4ff00008994208bf40453d
:1022d8001bd1413e192e94bfb849b949601905f080
:1022e800edffb74805f04efecdf800900246534684
:1022f8000598214604f070f80db0bdec0a8bbde8d6
:10230800f08f2b23d4e75246d6e780458b41a6f1c0
:102318004103039308d2192b94bfaa49aa4960190b
:1023280005f0ccffa848dde730216155b5ee408bbc
:102338000399b7ee009b192905f101038cbf782199
:102348005821f1ee10fae15405f10205a2f102025a
:1023580040f0ec80b0ee49bbb0ee48cbbbf1000fcb
:102368009fed8fabacbf5b461823591c002700bffd
:102378008cee0b0bcde90731049203f0a9fabbf1ff
:10238800000f00ee4bcbdde907312bee0abb049ab8
:1023980007f1010704dab5ee40cbf1ee10fa02d0ee
:1023a8008f42e5d15f1cb2ee007b2bee077bb4eecb
:1023b800c7cbf1ee10fa00f1dc80b4ee47cbf1eeba
:1023c80010fa09d1bdeec00b9fed776b10ee103af5
:1023d80013f0010f06fe077b38ee078b18ee903ad4
:1023e80018ee10ca744923f000400023884208bf41
:1023f8009c453ff46eaf06990539a942079140f212
:102408001481794208912e46ae461f46049300bfb8
:1024180088ee090bcde90a23cdf824e003f058fa39
:10242800fdeec07bdde909e2b0ee40bb17ee900a95
:102438000b9b002840f0a080002b00f09d80013706
:1024480008990bee498b013b8b4229ee0a9b03d07e
:1024580007998e42b646dbd3049bcbb9002f40f3d5
:10246800e580bbf1000f40f3e18019f0010f40f067
:10247800dd80a3192e211970b9192144302000bf1d
:1024880003f8010f8b42fbd13e44ff4301363a4427
:10249800069b0021a019013b88450170b8bfc8f10f
:1024a8000008e1544ff00107b8bf01214ff00a0bb3
:1024b80003f1ff3cb8f1000f40f0a580012f00f0b8
:1024c800a28000290cbf2b212d2104f80c100399a0
:1024d800023b192904eb03018cbf4ff0700c4ff03d
:1024e800500c9e4281f800c003da039205f0e6fe24
:1024f800039a09f00303022b11d11744033f002f5d
:102508000ddd204605f03efde319a84280f28980e2
:102518003a463021601905f0d1fd4ff0000a2046f7
:10252800e0e600bf08f10108b0ee479b39ee097bf1
:10253800b4eec78bf1ee10faf4d5b6ee007b9fed42
:102548001c6b00bfb4eec98bf1ee10fa7ff502af39
:1025580029ee075bb5ee405bf1ee10fa08bf29eef5
:10256800069b08f1ff3808bf28ee068b29ee079b6b
:10257800e8e79fed0d7b2fe7049941b93bb14ff098
:102588002e0c012104f80ec00136013a0491e1191c
:1025980004eb060c31444ff0300e19e0aff3008025
:1025a800000000000000b03f000000000000000034
:1025b80000000000000050430000f07f487d40000c
:1025c8004c7d4000507d4000547d40000cf801ebec
:1025d8008c45fbd1f119d71b039a0928d4bf303099
:1025e8005730192a0ad840f02002613a192a05d82a
:1025f800cde9093105f001fedde909317a1e6054a3
:102608004e1c00271ce7634698fbfbfe0eeb8e0c66
:10261800a8eb4c0c0cf1300c04f803c0f046013f59
:1026280046e7225c1a5401386fe72e4619f0100f5e
:0c2638003ff42eaf2e23a355013629e7f6
:020000040000fa
:020000040040ba
:0426440000207047bb
:020000040000fa
:020000040040ba
:102648002de9f04f2ded0a8b92ed009b8fb0b5ee82
:10265800c09b05938b680493f1ee10fa0b69cd6863
:102668000690d1e900a78b46089308d41af0040f06
:1026780034d11af00803039332d0202302e02d232b
:10268800b1ee499b2b70049b03f1ff39012303939f
:1026980019ee903a19ee101a23f00042c04b0024ac
:1026a8009a4208bfa1421ed1059b0398413b192bb2
:1026b80094bfbc49bc49284405f000fe284605f0f3
:1026c80061fc049bcdf800a002462946069803f059
:1026d80083fe0fb0bdec0a8bbde8f08f2b23d1e74a
:1026e800ddf81090d4e78c42934108d2059b0398fb
:1026f800413b192b94bfad49ad492844dce7b5ee01
:10270800409bf1ee10fab2ee04cbb7ee00ab40f00e
:10271800c080059805f06afd002fc0b2c0f2628142
:10272800672840f0d580002f08bf0127231dc0f27d
:10273800d180bc4280f2ce80002c4ff066080cdac3
:10274800b8f1660f07f1010707d1002c02dab7eede
:1027580000ab0024672800d027440023b0ee4a8b42
:10276800b0ee49bb8bee080b0993079003f0b0f865
:10277800099b90ee08bb01339f420798b1ee4bbb13
:1027880088ee0c8beed1b1ee047b28ee078bb4ee0d
:10279800cb8bf1ee10fa00f3a080b4ee4b8bf1ee88
:1027a80010fa09d1bdeec00b9fed796b10ee103a0f
:1027b80013f0010f06fe088b39ee088b2aee0c9bee
:1027c800b4eec89bf1ee10fa00f28a80b8f1660ff9
:1027d80004f1010440f0868001372146cb1b00221a
:1027e800039f0a9316460a9b994240f0a5803346f8
:1027f800002e00f0df80e8190022b8f1650f0270a2
:1028080029d1089b013b9442ea54bcbf644201228f
:102818004ff0020b4ff00a0e591e002c40f0d180e9
:10282800bbf1000f00f3cd80002a0cbf2b222d2214
:102838006a54059a023b413a192a05eb030198bfed
:102848004ff045089f4281f8008001da05f036fd17
:10285800cb44abf104090af00303022b7ff42eaf3b
:10286800b9f1000f7ff72aaf284605f08bfb05eb7f
:102878000903039a824240f3b18003984a46302103
:10288800284405f01bfc0023049317e70134b0ee3d
:1028980047ab2aee0c7bb4eec79bf1ee10faf5d5e8
:1028a8009fed3d7b00230be014f5967f05da23b9f5
:1028b80029ee079b2aee07ab0123013c8aee0cabfd
:1028c800b4eeca9bf1ee10faeed422e706272de704
:1028d800804635e74ff065083fe79fed2d8b6be7a6
:1028e800b0ee4a9bb8f1650f14bf2146002175e789
:1028f8004eb9002907da079e2e23ab55012301376d
:1029080009f1ff391e46ab1805eb070c3b444ff0a5
:10291800300e01e00cf801eb9c45fbd1099b02eb62
:10292800070c3033a9eb020202f1ff3905f80c302d
:102938000cf10107002223e0dbf810300797053b74
:10294800bb427ff654af88ee090bcde90c200b9102
:1029580002f0befffdeec07bdde90b1217ee90ca58
:102968006346092ba8bf092309930af0100353ea09
:102978000c0c0d98bcd16728bad10029b8da0132fd
:1029880099ee008b0139b1ee488b89ee0c9b2ae752
:10299800000000000000000000000000000050439c
:1029a8000000f07f487d40004c7d4000507d400095
:1029b800547d40001af0100f1ebf2e23eb5501372f
:1029c80019e70b4694fbfefc0ceb8c01a4eb4101d0
:1029d8003031e95464460bf1ff3b1de72a5c1a5479
:1029e800013846e767283ff471af80460627a7e617
:020000040000fa
:020000040040ba
:1029f800884a40201c00000000000000e84a4020ef
:102a08000400000000000000c84a40200c0000003c
:102a180000000000284a402060000000000000007c
:102a2800ec4a40200c00000000000000584c4020f8
:102a38000200000001000000ffff0000344b4020ae
:102a48000100000000000000f84a402004000000d7
:102a580000000000354b402001000000000000008d
:102a6800fc4a40200400000000000000364b4020d3
:102a78000100000000000000004b4020040000009e
:102a880000000000374b402001000000000000005b
:102a9800044b40200400000000000000384b402098
:102aa8000200000000000000084b40200400000065
:102ab80000000000e449402044000000000000003d
:102ac8009c494020480000000000000020284020c9
:102ad8002812000000000000984740201401000060
:102ae8000000000048444020d00100000000000021
:102af800e04a402008000000000000000c4b402085
:102b08000c000000000000003a4b402001000000cb
:102b180000000000ac484020a000000000000000b9
:102b28003b4b4020010000000000000018464020f8
:102b380080010000000000003c4b40200100000024
:102b480000000000a44a402014000000000000001b
:102b5800184b40200400000000000000483e4020c0
:102b680000020000000000003d4b40200100000072
:102b780000000000544c4020040000000100000048
:102b8800ffffffff1c4b4020040000000000000076
:102b98005a4c402001000000010000000200000023
:102ba8003e4b40200100000000000000483a402051
:102bb8000004000000000000b84a40201000000097
:102bc800000000003f4b4020020000000000000011
:102bd800d44a40200c00000000000000204b402098
:102be8000400000000000000414b402002000000eb
:102bf80000000000444b40200001000001000000dc
:102c0800001a0e4000000000000000000000000054
:102c180000000000000000000000000000000000ac
:102c2800000000000000000000000000000000009c
:102c3800000000000000000000000000000000008c
:102c4800000000000000000000000000000000007c
:102c5800000000000000000000000000000000006c
:102c68000000000048424020484040200002000088
:102c7800000200000000000000000000000000004a
:102c880000080e40000000000000000000000000e6
:102c9800000000000000000000000000000000002c
:102ca800000000000000000000000000000000001c
:102cb800000000000000000000000000000000000c
:102cc80000000000000000000000000000000000fc
:102cd80000000000000000000000000000000000ec
:102ce80000000000201440202000402000140000b4
:102cf80000140000000000000000000000000000b8
:102d0800200040200028000000000000484040202b
:102d18000004000000000000444c402010000000a7
:102d28000100000000c002400a000000000000008e
:102d380000000000434b402001000000000000009c
:102d4800244b402008000000000000004c494020af
:102d580050000000000000002c4b4020080000003c
:102d680000000000000000000000000066666666c3
:020000040000fa
:020000040040ba
:102d78002de9f047aeb00746164605914ff000081a
:102d8800059d2b78002b00f0e08000244ff0ff33e6
:102d9800cde909430eab0c9380230b940d932b5d67
:102da8000bb1252b30d134b129462246384625446b
:102db80004f088fe0595059b1a78252a40f0bc800a
:102dc80003f10109cdf814904a46002113782b2b02
:102dd800104602f1010223d02ed8202b24d0232b19
:102de80026d001b105902a2b2ed004f071f9059a4e
:102df8000b900020114601320b78303b092b79d912
:102e0800002830d005912ee00134c8e7099b43f033
:102e1800010309930121d9e7099b43f00203f8e76d
:102e2800099b43f00403f4e7099b43f00803f0e728
:102e3800099b43f01003ece72d2be7d0302bebd0a8
:102e48000029d2d00590d0e733681a1d1b6832607c
:102e58000130002b05900b9305da099a5b4282f04a
:102e6800010209920b93099bda0744bf23f002037e
:102e78000993059b1a782e2a0fd14ff0000acdf836
:102e880028a05a785d1c2a2a059535d10233059366
:102e980033681a1d1b6832600a9305a804f0b0fb5a
:102ea800059d0390287805f0a1f92528039900f0dd
:102eb800da806138172800f2e080172800f2dd80f8
:102ec800dfe810f02b00db00b6004700a700a700e2
:102ed800a700db004700db00db00db00db009e0017
:102ee80065008300db00db00c700db005600db0069
:102ef800db00740001207de7284604f0e9f853461a
:102f08000a90294601350a78303a092a03d9002b54
:102f1800c3d00591c1e70123f3e7324606a804f0c0
:102f2800f3fc002872d06b1c059306aa2b7809a91c
:102f38003846fff79df904444444a04540f3a78070
:102f4800544b4f221a604ff0ff3840462eb0bde870
:102f5800f0873346012206a802f056fc002855d017
:102f6800013506aa09a93846059502f073ffe2e77c
:102f78003346002206a802f047fc002846d0013557
:102f880006aa09a93846059503f01effd3e733467c
:102f9800002206a802f038fc002837d0013506aa1e
:102fa80009a93846059503f0b9fbc4e73346002262
:102fb80006a802f029fc48b36b1c05932b7806aad7
:102fc80009a9384601f018f9b5e733460022f0217f
:102fd80006a802f019fcc8b1dde906320135134331
:102fe80005950bd12c4804f0cdff099b00932a4985
:102ff8000b9b0246384603f0eff99ce77823dee79f
:10300800334608eb040206a803f0fafb01350595e0
:1030180092e7324606a804f077fc0028f6d06b1c2d
:10302800059306aa2b7809a93846fff709fb82e71a
:103038008029ebd1336801351a1d1b6832608df881
:1030480018300595012306aa09a9384603f090fe11
:1030580071e78029dad13268131d336001351268af
:1030680005950023f0e78029d0d1099b009301350d
:103078000b9b059509490122bce700234ff0ff325d
:10308800cdf8149009930b930a920093f2e7a046a7
:1030980076e600bf304b4020407d4000467d400032
:020000040000fa
:020000040040ba
:1030a8002de9f04786468c460846089e1546744624
:1030b8001946002b40f0c2808242b2fa82f245d90a
:1030c8004ab1c2f1200300fa02fc2efa03f395403c
:1030d80043ea0c0c94404fea154ea8b2bcfbfef82c
:1030e800230c0efb18cc08fb00f943ea0c43994566
:1030f80028d9eb1808f1ff3704d2994502d9a8f16d
:1031080002072b44a3eb0903a4b2b3fbfefc0efb9e
:103118001c330cfb00f044ea0344a04214d92c19d8
:103128000cf1ff3304d2a04202d9acf102032c44c3
:10313800241a43ea07401eb1d44000233460736068
:10314800bde8f0874746dde76346f1e792bb431bde
:1031580001214fea154eafb2b3fbfefc200c0efb6b
:103168001c330cfb07f840ea0343984562d9eb1877
:103178000cf1ff3004d2984502d9acf102002b447f
:10318800a3eb0803a4b2b3fbfefc0efb1c330cfb41
:1031980007f744ea0344a7424ed92c190cf1ff3330
:1031a80004d2a74202d9acf102032c44e41b43ea3f
:1031b8000040c0e7c2f1200320fa03f19540904097
:1031c8002efa03f303434fea154eafb2b1fbfefcf0
:1031d8000efb1c10190c0cfb07f841ea004188454e
:1031e80004fa02f422d969180cf1ff3004d2884598
:1031f80002d9acf102002944a1eb08019bb2b1fb52
:10320800fefc0efb1c110cfb07f743ea01439f422f
:103218000ed9eb180cf1ff3104d29f4202d9acf160
:1032280002012b44db1b41ea004192e76046e3e7d9
:103238006146f7e76046a3e76346b7e7834206d9e6
:1032480016b9002108467be7c6e900e0f9e7b3faba
:1032580083f78fb9834201d3724508d8beeb0204c5
:1032680060eb030301209c461eb9002168e738463d
:10327800fae7c6e9004cf8e7c7f1200cbb4022fa90
:103288000cf41c432efa0cf120fa0cf3b84001435d
:103298004fea14490efa07f5b3fbf9f81ffa84fe52
:1032a80009fb18300b0c08fb0efa43ea00439a4559
:1032b80002fa07f240d9e31808f1ff3004d29a4520
:1032c80002d9a8f102002344a3eb0a0389b2b3fb95
:1032d800f9f809fb183308fb0efe41ea03418e4555
:1032e8002cd9611808f1ff3304d28e4502d9a8f110
:1032f8000203214443ea0040a0fb0298a1eb0e011f
:103308004145ce46434602d306d14d4504d2b9ebda
:10331800020e68eb04030138002ea6d0b5eb0e02ae
:1033280061eb030101fa0cfc22fa07f34cea0303f0
:10333800f940c6e9003198e74046c5e74346d9e772
:020000040000fa
:020000040040ba
:10334800002800f0048170b50446002900f0f980d7
:10335800097803780d2b00f2f080dfe803f00711fd
:103368001c2d39434a55767e868ac1d301f0f00177
:10337800c02901d00820e5e003f09eff012321e0e9
:10338800de2901d102231de0724803f07dfe2046ac
:1033980003f092ff4be042788a4205d100f587702e
:1033a80004f070fa03230de06b4803f06dfe20462d
:1033b80003f082ff0420c5e0418000f5877004f027
:1033c80061fa042323700023a4f808310220b9e02d
:1033d800438843ea0123438000f5877004f052fada
:1033e8000523efe7017100f5877004f04bfa062317
:1033f800e8e7c18000f5877004f044fae388002b01
:1034080014bf07230823dde7b0f80831fe2b14d8d2
:103418005a1ca0f808210344197200f5877004f0bb
:1034280031fab4f80821e3889a4200f08c802378b6
:10343800002b14bf0220082084e0484803f024fe33
:10344800204603f039ff09207ce080f80a1100f5d6
:10345800877004f017fa0923b4e780f80b1100f518
:10346800877004f00ffa0a23ace7c0f810110b2399
:10347800a8e7d0f8103143ea0123c0f8103100f56d
:10348800877004f030ff0546d4f81061b3b2984253
:103498005bd094f80b3194f80a21a17904f1080063
:1034a80002f00afe012807d1012384f80c312c48c8
:1034b80003f0eafd0c2385e7b2b22946294803f058
:1034c800e3fdd4f8c43113b15a6901325a61217944
:1034d800204603f0f7fc204603f0eefe062031e01c
:1034e800da2901d10d236de71f4803f0cdfdd4f88b
:1034f800c43113b19a6901329a61204603f0dcfea7
:1035080007201fe0ed290dd0184803f0bdfdd4f8c1
:10351800c43113b19a6901329a61204603f0ccfe96
:1035280007200fe000230370a0f80831c288418803
:103538000f4803f0a9fd032004e003f0bdfe0120bd
:1035480000e0012070bd08233ce70c233ae7012086
:10355800704700bfc0114000d4114000f411400072
:103568000c1240002c124000501240007c12400007
:043578006412400099
:020000040000fa
:020000040040ba
:10357c002de9f04383b00d9ebdf83870002800f0a3
:10358c00e78088461d4604462eb927b101252846fa
:10359c0003b0bde8f083ff2f00f2dc80d4f83031ab
:1035ac001bb19847002840f0d780d4f8283133b1ac
:1035bc00984707f10d039bb29842c0f0c38001a855
:1035cc0004f0a1fec0238df80730d4f820310df1a2
:1035dc0007009847de238df80730d4f820310df121
:1035ec000700984763788df80730d4f820310df137
:1035fc00070098479df8071001a804f041f98df8d1
:10360c000780d4f820310df1070098479df807107a
:10361c0001a804f035f94fea18218df80710d4f8f9
:10362c0020310df1070098479df8071001a804f010
:10363c0027f98df80750d4f820310df10700984781
:10364c009df8071001a804f01bf95ffa87f98df8b3
:10365c000790d4f820310df1070098479df807101a
:10366c0001a804f00df997b1354607eb060815f8db
:10367c00013b8df80730d4f820310df10700984745
:10368c009df8071001a804f0fbf84545efd10df1aa
:10369c0003030df102024946304603f077ff9df813
:1036ac0002308df80730d4f820310df1070098471f
:1036bc009df8071001a804f0e3f89df803308df88d
:1036cc000730d4f820310df1070098479df807100a
:1036dc0001a804f0d5f801a804f003fe05468df806
:1036ec000700d4f820310df1070098472d0a8df80a
:1036fc000750d4f820310df107009847da238df8e4
:10370c000730d4f820310df107009847ed238df8e0
:10371c000730d4f820310df107009847d4f8c431a4
:10372c0093b11a6801321a60d4f8c43173b15a6873
:10373c003a445a600025d4f83431002b3ff427afbb
:10374c00984724e70925f6e70025f4e70025f2e77a
:0c375c0001251ce709251ae70b2518e7da
:020000040000fa
:020000040040ba
:103768002de9f04786b0bdf83890002800f0bd80fc
:103778000e4690460546d0f8cc41002c00f0b780a4
:1037880033b9b9f1000f03d0012006b0bde8f087c6
:10379800b9f1ff0f00f2ad80277807f07f0784f8b2
:1037a8000771b9f1000f32d1a4f80291a4f80461ad
:1037b80084f806814b4632463946504803f064fc8b
:1037c8004ff000084ff0010a00266670a670d5f881
:1037d800cc0190f8073190f80621b0f80411b0f840
:1037e80002c1cdf810c003300390cdf808a00196af
:1037f80000962846fff7befed5f82c316bb19847e6
:10380800064618f0ff0f0ad14ff0000952e04a4669
:103818001946e01c04f0aafbc6e70026f1e7424679
:103828003946374803f030fcd5f8c431002bebd0cb
:103838005a6a01325a62e7e73946324803f024fcf3
:103848002378013303f07f032370d4f80c31002b65
:1038580051d0394628469847002096e739462a48e5
:1038680003f012fcd5f8c43113b15a6b01325a6314
:1038780008f10108b8f1040fa6d1032239462348fc
:1038880003f002fcd5f8c43113b1da6b0132da6304
:10389800d4f8103113b139462846984723780133b4
:1038a80003f07f03237001206fe74846801bb0f5c3
:1038b800967f0ed2284600f005f96378002bbbd11d
:1038c800a378002bcad1d5f82c31002bedd098471e
:1038d800ece739460e4803f0d7fbd5f8c431002b86
:1038e800c6d01a6a01321a62c2e701204de70120e8
:1038f8004be7092049e7002047e700bfb81240001e
:10390800dc124000001340001c134000501340001c
:043918003813400020
:020000040000fa
:020000040040ba
:10391c002de9f04f87b0002800f0be800e4615460a
:10392c000446002900f0b88000f5805393f8243247
:10393c00002b00f0b780022a40f2b78091f800808b
:10394c004f7891f802b00192cdf800b03b46424658
:10395c004ff48071564803f095fbb8f1000f1bd162
:10396c0094f8080a50b12246002392f80814b94280
:10397c0018d00133603299b28842f6d839464d4896
:10398c0003f080fb00230193009301235a46394630
:10399c00204600f0dffa81e0474803f073fb4ff05c
:1039ac0000087be0dab2102ae8d0dab2049202eb1b
:1039bc00420304eb431303f2094339463f4803f037
:1039cc0061fbc4f80c4a84f8107a84f811ba04f537
:1039dc0080594ff0000389f8203289f8213241f2e6
:1039ec00142aa24404f612214ff4006203915046ab
:1039fc0004f0f3fb636804f60c2205929a600a212a
:103a0c00606803f051fd6068fef7e0f84ff00002cb
:103a1c0089f8202289f821224ff40062039950463c
:103a2c0004f0dbfb032d0bd006f10209013d16fa65
:103a3c0085f519f8011f606803f036fda945f8d12a
:103a4c000a21606803f030fd6068fef7bff804f5ea
:103a5c00805393f820327bb9049b03eb430304ebb4
:103a6c004313d3f8643413b100210598984704f537
:103a7c008053012283f82022504604f044fb04f5c5
:103a8c0080530190039a009293f821325a4639469a
:103a9c00204600f05ffa01e04ff00108404607b005
:103aac00bde8f08f4ff00308f8e74ff00408f5e796
:103abc0000104000601040003c1040009810400086
:020000040000fa
:020000040040ba
:103acc002de9f04184b0002800f0c7800446d0f8fe
:103adc0038311bb19847002840f0c180d4f82c3104
:103aec00abb198470546d4f824311bb10df10f004a
:103afc00984770b12178002900f0a680d4f81c31c9
:103b0c00eb1ab3f5967f00f28f8008259de0002517
:103b1c00e9e7c4f81c510df10f012046fff70efc2c
:103b2c000546032840f09180d4f8c43193b19a68cb
:103b3c0001329a60d4f8c43163b1e188da680a447e
:103b4c00da6094f80c312bb1d4f8c43113b11a6982
:103b5c0001321a61d4f8cc31002b37d004f10806ad
:103b6c00e38832466188204601f058f900286cd170
:103b7c00e788d4f8c881b8f1000f0ed0009733460f
:103b8c00628800212046c04794f8c01100295cd0ff
:103b9c006088234604ebc1010ae000973346628833
:103bac0000212046fdf73bfceee708338b424cd05e
:103bbc00b3f840218242f8d1d3f84481b8f1000f18
:103bcc00f3d03a4631462046c0473ee0d4f8c861af
:103bdc007eb1e388009304f108036288002120463b
:103bec00b04794f8c01181b36088234604ebc1013f
:103bfc000ce0e388009304f108036288002120465e
:103c0c00fdf70dfcede708338b421ed0b3f84021d5
:103c1c008242f8d1d3f84461002ef4d0e28804f14a
:103c2c0008012046b04710e00e4803f02bfad4f8f8
:103c3c00c43113b1da690132da61204603f03afb80
:103c4c00c4f81c510a2500e00825d4f83c3103b116
:103c5c009847284604b0bde8f0810125f9e70b250b
:083c6c00f7e700bf90124000d1
:020000040000fa
:020000040040ba
:103c74002de9f04f89b09846129b002b18bf002afb
:103c840000f0a38006460d469146002800f09d8072
:103c940000f5805292f82422002a00f09a8090f8cd
:103ca400087a67b1844600249cf808e4ae4551d0f4
:103cb40001340cf1600cbc42f6d10f2f72d807eb23
:103cc400470a06eb4a1a8af80854caf8643407eb20
:103cd4004704640104f2094bb34417224946584689
:103ce40004f0e2fa00238af82034b8f1000f5ed021
:103cf40004f221403f224146304404f0d5fa002228
:103d04008af86024cdf80cb004f2214333440493c0
:103d140001238df8143004f58164344406942e4b49
:103d2400079308ab13e903008de8030003ab0ecb44
:103d3400706803f0f3f9002841d096f8083a01338b
:103d440086f8083a4b462a463946244803f09ef939
:103d540000203be004eb440a06eb4a1acaf8643438
:103d640004eb44077f0107f2094017224946304417
:103d740004f09afa00238af82034b8f1000f09d02d
:103d840007f221403f224146304404f08dfa0022dc
:103d94008af860244b462a46e1b2114803f076f9ca
:103da400002013e00f4803f071f902200ee007eb46
:103db400470306eb4313002283f82124a2e7494674
:103dc400094803f063f9022000e0012009b0bde8ce
:103dd400f08f0320fae700bfe57e4000c00f4000eb
:0c3de4000c0f4000540f40007c0f40000a
:020000040000fa
:020000040040ba
:103df00000287dd070b582b00c460546002971d0f0
:103e00000b6b002b70d04b6b002b6fd044263246cf
:103e1000002104f057f9ac46a646bee80f00ace816
:103e20000f00bee80f00ace80f00bee80f00ace8e2
:103e30000f009ee803008ce80300012385f8413061
:103e40002c4b1d602c4a4ff40071206b03f026ffb1
:103e50002a4b00932a4b2b4a4021606bfff70aff45
:103e6000294b0093294b2a4a4121606bfff702ff3f
:103e7000284b0093284b294a4221606bfff7fafe3a
:103e8000274b0093274b284a4321606bfff7f2fe34
:103e9000264b0093264b274a3146606bfff7eafe1c
:103ea000254b0093254b264a4521606bfff7e2fe28
:103eb000244b0093244b254a4621606bfff7dafe22
:103ec000234b0093234b244a4721606bfff7d2fe1c
:103ed0004ff40073fb220221204803f0d9f80020a0
:103ee00002b070bd0120fbe70120f9e70120f7e7f0
:103ef00001207047184b4020194f40006946400090
:103f0000600940006c0940006548400074094000a9
:103f1000880940005d4a400090094000a409400023
:103f200001504000ac094000c0094000b1664000ab
:103f3000c8094000d4094000015b4000dc09400092
:103f4000e80940007d6e4000f0094000fc09400097
:103f500099674000040a4000140a4000200a40000b
:020000040000fa
:020000040040ba
:103f60002de9f04fadf5477d05908b46904699467b
:103f7000ddf840c3bdf8445375b19cf800301c46d1
:103f80001a1d954254d300200746014606460df5fa
:103f90008c7e82461a4627e00023adf818310123b3
:103fa0000493ddf810a000245346a246cdf840c388
:103fb0001e465be0184480b20b4499b2f82808d939
:103fc000ff2e06d0731ccf1b2ef816700f46deb2e4
:103fd00050468d4220d94b1cab421dd81cf8012005
:103fe0005418231dab4217d86444a378e47843eafd
:103ff0000423043313449bb20028dbd01a1892b276
:10400000f92ad7d9ff2e54d0721ccf1b2ef8167068
:104010000f46d6b25046cde748b1ff2e07d0731ced
:10402000dbb20493c91b46ab23f81610b9e72eb9cf
:104030000023adf8183101230493b2e70496b0e7ea
:10404000062501340295019600944b464246594696
:104050001c4803f01df8009506abff2240f2011149
:104060000598006803f08bfeb44227d046ab33f8c6
:10407000147001238df818308df819b08df81a805e
:104080008df81b90049b8df81c308df81d40002f7f
:10409000d6d0d09b002bd3d03a4603eb0a010df1ca
:1040a0001e0003f067ffbd1dadb257441ffa87fa2b
:1040b000c7e75a1818460f4691b28ae70df5477db3
:0840c000bde8f08f5c0e40002a
:020000040000fa
:020000040040ba
:1040c8002de9f043adf2044d0646884615461c46d8
:1040d800ddf82074c3684ff400720deb020140460e
:1040e800984700285bd1dff80c914a4680993948f7
:1040f80002f0caff809b4b455ad122469df82812f0
:10410800354802f0c1ff9df82832a34253d12a4610
:104118008399324802f0b8ff839b013b9d424dd9f9
:1041280008f50078424684992d4802f0adff849b3b
:10413800984546d14ff4007422460deb04016846b9
:1041480003f014ff002307932146684603f072f931
:104158000446879a0146234802f096ff879ba342ac
:1041680023d1839a4146304602f082fb0446869a60
:1041780001461d4802f088ff869ba34224d11b48b4
:1041880002f082ff1fb34ff400720deb02013846b4
:1041980003f0ecfe00200df2044dbde8f083144856
:1041a80002f072ff6ff00300f5e76ff00300f2e72b
:1041b8004ff0ff30efe76ff00100ece76ff002001f
:1041c800e9e76ff00500e6e76ff00400e3e7002099
:1041d800e1e700bfa80b4000d40b4000f80b4000fb
:1041e800240c4000540c4000880c4000bc0c4000db
:0841f800800b4000dec007b09f
:020000040000fa
:020000040040ba
:104200002de9f04f8bb00d460493d1e901132f68cf
:10421000d5f80c9003900029a8bf27f0020792461a
:10422000b8bf012117f010020592dae9006232d01e
:1042300056ea02002fd0a3f1020b2c69029617f068
:10424000080004f1ff3418bf0bf1ff3b9046002239
:1042500009f8042006905a46012c1edc059a002a13
:1042600051d1069a1ab1013c202209f804202a698a
:1042700003980097013a121b09eb040102f0b0f811
:10428000039b5b68db0503d56b689842b8bf184693
:104290000bb0bde8f08f9b46cfe7029850ea0800cc
:1042a00008d1a1eb0b001044002803dc002ad5dd67
:1042b000b807d3d50298049e00f00f000928a6f194
:1042c000410cd4bf30305730bcf1190f04f1ff342a
:1042d0000ed840f0200cacf1610cbcf1190f07d8de
:1042e000cde90813079203f08cffdde90813079a64
:1042f00009f804000298060946ea0870013a02909b
:104300004fea1818a8e7dae900210a43a9d009eb17
:104310000402049902f8011c023c302209f804202e
:024320009fe715
:020000040000fa
:020000040040ba
:02432200fee7b4
:020000040000fa
:020000040040ba
:1043240008b5394b9847394b9847eff3108172b66b
:10433400374ad2f8883043f47003c2f88830bff3a8
:104344004f8fbff36f8f01b962b6324b324a5a6056
:104354001a46936813f0010ffbd02e4bdb6813f45d
:10436400c07f15d02d4b0c221a602a4b2c4a5a6060
:104374001a46936813f0010ffbd0264b294a5a6062
:104384001a46936813f0010ffbd0274b274a1a6093
:10439400bff34f8fbff36f8f1d4cd4f8903223f0cf
:1043a4000103c4f89032d4f8943223f00103c4f822
:1043b4009432bff34f8fbff36f8f03f08ff91c4b11
:1043c40023f07f03a3601b4b9847636913f4003ffa
:1043d40012d1bff34f8fbff36f8f0022c4f8502266
:1043e400bff34f8fbff36f8f626942f40032626193
:1043f400bff34f8fbff36f8f0f4b98470f4b984707
:1044040003f08efefee700bf77764000777640002b
:1044140000ed00e0000c0e400d00005aec4a402074
:104424000c08005a0c07005a00180e40010000a5a1
:10443400000040001d6d4000777640007776400014
:020000040000fa
:020000040040ba
:1044440000286fd038b5044690f8413083b1364b1c
:104454001b789bb1344b00221a70344b1b78022b0f
:1044640007d0334802f012fe0221204600f034fe49
:1044740038bd03f0affe2f4b1860f9e703f0aafe36
:104484002c4b1b68c11a294a1278012a15d9b1f597
:104494007a5f3fd244f267221a44121a264ba3fbd6
:1044a40002329109254b1b68b3eb921fe0d0234bda
:1044b4001960234802f0eafddae7151e18bf01254a
:1044c400002a14bf4ff47a524ff4fa628a4213d985
:1044d40003f2e7331b1a1344174aa2fb03239a0976
:1044e40016490968b1eb931fc2d0144b1a602946d0
:1044f400144802f0cbfdbbe72946134802f0c6fd81
:10450400042384f8383084f84050636a0f4a5069b1
:104514009847ade70e4802f0b9fd0021204600f0af
:10452400dbfda5e7704700bf3d4b40205a4c4020bf
:10453400800a40001c4b4020d34d6210544c402054
:10454400f40a4000b00a4000d40a4000483e40202b
:04455400200b4000f8
:020000040000fa
:020000040040ba
:1045580030b597b0344c684602f08cfe04f5907e76
:10456800ec46bce80f00aee80f009ce80f008ee8b0
:104578000f000121204603f095f82c49204603f04e
:1045880051fa2b49204603f041fc2a4d2146284682
:1045980001f012f8284601f0e1fe08a803f024fb18
:1045a8001494159508a92448fff71efc0d9b002bb1
:1045b80037d09847014608a801f0f6fa1e4802f0dd
:1045c80037fe02211d4802f05ffd40f201124ff450
:1045d80080711b4802f058fd1a491b4802f054fd2f
:1045e8001a4802f051fd1a4bd96bda6ba3f5c06378
:1045f800db6b11f0200f1749174818bf014612f45a
:10460800807f144a18bf024613f0040f1148124b5a
:1046180008bf0346114802f037fd01f0b9fc17b096
:1046280030bdff21c7e700bf4844402098474020dd
:104638009c49402020284020e4494020b8054000fb
:104648000806400048024000340640004c0640007e
:1046580000140e40940140009001400060064000a4
:020000040000fa
:020000040040ba
:1046680038b52d4b1b68002b52d001252b4b1d70e4
:1046780000f608042a4a2b49204602f070fd2a4613
:104688002949204603f0defb02222849204603f090
:10469800d9fb4ff6ff722649204603f05dfb4ff425
:1046a80084022449204603f0d7f84ff4a402224993
:1046b800204603f0d1f8214a2149204603f0ccf8de
:1046c800204a2149204603f0c7f84ff400721f49d9
:1046d800204603f041fb104d2b6893f838201c4905
:1046e800204603f0affb2b6893f840201949204679
:1046f80003f0a8fbfb221849204603f0a3fb2b6814
:104708009b6a33b1984702461449204603f0a4f83f
:1047180038bd4ff0ff32f7e7184b40203d4b4020a3
:1047280000084000080840000c0840001408400039
:104738001c084000240840002c08400000fe0f0020
:104748003408400000fe0d003c08400044084000ca
:104758004c08400070084000540840005c084000c5
:020000040000fa
:020000040040ba
:104768002de9f0410446c668b78d0fb30d460846db
:1047780003f016fa20bb00252f46dff8dc804146ff
:10478800204603f0fbf9736a5959204603f0f6f9fd
:104798002e49204603f0f2f9716a2944204603f0b5
:1047a80005f901371435b38dbb42e8dcbde8f0816b
:1047b800274903f0e3f92549204603f0dff9f5e737
:1047c800012808d02349204603f0d8f91f4920467c
:1047d80003f0d4f9eae70121284603f0dffb80461d
:1047e800756a00264146286803f0eefb40b10136a1
:1047f8001435b742f6d14146204602f039ffd5e7d5
:104808006d6845b91249204603f0b8f90f492046aa
:1048180003f0b4f9cae71049204603f0aff941465e
:10482800204603f0abf9094e3146204603f0a6f9bd
:1048380023680921204698472946204603f09ef917
:104848003146204603f09af9b0e700bf84064000dd
:0c48580004074000200740001c0740003f
:020000040000fa
:020000040040ba
:10486400344b1b68002b63d02de9f0410446084605
:104874000121314b197001f041fbc7b2012f38d827
:10488400012f14bf4ff484084ff4a4082b4d2c4b74
:10489400012f08bf1d4605f50075c6b22b464246da
:1048a4003146284802f0f2fb224b1b685b6829461c
:1048b4004046984768bb1f4b1b680022da6383f8a5
:1048c4004070012583f83850186b02f0f7fc31462c
:1048d4001d4802f0dbfb04f608042a461b49204667
:1048e40003f0c9f93a461a49204603f0adfabde887
:1048f400f081032384f8153804f6080400221349d0
:10490400204603f0b8f9134a1349204602f029fc63
:10491400ede7022384f81538064b1b68052283f85b
:1049240038200022094904f6080003f0a4f9dee760
:10493400704700bf184b40203d4b402000fe0f0045
:1049440000fe0d007c084000ac08400068084000f0
:0c495400700840006c084000780840002b
:020000040000fa
:020000040040ba
:104960002de9f04f83b005460c461746104603f07c
:104970000dfbd4f80c80b8f82c307bb1064668b13a
:104980004ff0000bda465c46cdf800b001951be015
:104990001ffa83fa13e0009b019d02e000239a4670
:1049a0009b462b60a5f804a0a5f806b0284603b0e6
:1049b000bde8f08f1ffa80fa00954ff0010b01342b
:1049c000b8f82c30a342e6dda146d8f8243004eb39
:1049d000840253f82250284603f0d8fad8f8282049
:1049e000135d23f0010313558642e8d87a1e691e31
:1049f000134612f801ef11f801cfe645dfd102337b
:104a0000db1b9e42f4d8d8f8282012f8093043f076
:104a1000010302f80930bbf1000fcbd0824515d855
:104a20000bf1010b1ffa8bfbb8f82030d44653452d
:104a3000c5d2009a1a441d4412f8010b15f8011b47
:104a40008842a5d101336345f6d3b8e71ffa80fa4f
:0a4a50000bf1010b1ffa8bfbe6e7e8
:020000040000fa
:020000040040ba
:024a5a00fee775
:020000040000fa
:020000040040ba
:104a5c00324b1b68002b60d070b5adf5027d05465e
:104a6c00084601212e4b197001f044fac4b2012cf6
:104a7c0031d8012c14bf4ff484014ff4a40102abc4
:104a8c00009301232748284a9c4218bf024623481a
:104a9c000068fff713fb05f608050646b0fa80f22e
:104aac0052092249284603f0e2f8224620492846ba
:104abc0003f0c6f9304602f0b1f902461d4928460a
:104acc0002f04bfbbeb1154b1b68052283f8382056
:104adc000df5027d70bd032385f8153805f6080524
:104aec0000221249284603f0c2f8134a13492846fb
:104afc0002f033fbece7094b1b68042283f83820e7
:104b0c0083f84040059a0e49284602f0a3fe089a05
:104b1c000c49284602f09efedae77047184b4020fd
:104b2c003d4b402000fe0f0000fe0d0068084000c9
:104b3c0070084000c40840006c0840007808400031
:084b4c00cc084000d408400031
:020000040000fa
:020000040040ba
:104b5400364b0021c3f81411d3f8142142f48052c7
:104b6400c3f81421324a4ff4c06353606ff4c06336
:104b740013604ff0ff3353651366c2f89030c2f8e8
:104b8400a030042010616ff0040050619163c2f8fa
:104b9400181102f50072136053651366c2f8903061
:104ba400c2f8a0304ff4805010616ff4805050610f
:104bb4009163c2f8181102f500721360536513660d
:104bc400c2f89030c2f8a030116153619163c2f809
:104bd400181102f500724ff4603010674ff0c06096
:104be400506700f5603050601248106053651366da
:104bf400c2f89030c2f8a0300f4810610f485061dd
:104c04000f489063c2f8181102f5007213605365df
:104c14001366c2f89030c2f8a030022313616ff01b
:104c2400020353619163c2f8181170470080084071
:104c3400000e0e40ff7ffcf920010800dffef7ffa5
:044c44002000080044
:020000040000fa
:020000040040ba
:104c4800324b1b78002b60d0f0b5314a1368013322
:104c58001360304b1c780cb32f4b002294462f4e18
:104c6800012703e001321833a24217d0197a01292b
:104c7800f8d119780129f5d1596801315960dd68f1
:104c8800a942efd3c3f804c0c2f3421056f820502b
:104c980007fa02f1294346f82010e3e7204b1c7875
:104ca80024b3204b0022204d4ff0010c164603e0a0
:104cb80001321433a24219d019780129f8d1596860
:104cc80001315960df68b942f2d3c2f3421e55f888
:104cd8002e700cfa02f1394345f82e105e60197aed
:104ce800022914bf002101211970e1e70f4b1b684d
:104cf8001bb10e4a1368013b13600c4b5b681bb178
:104d08000a4a5368013b5360f0bd70473c4b402052
:104d18000c4b40203b4b402018464020144b402071
:104d28003a4b4020ac484020104b4020e04a4020fd
:020000040000fa
:020000040040ba
:104d38002de9f04f83b08846364b00211970002ac0
:104d480066d006461746dff8d09017e0bff34f8fbe
:104d5800c9f85c52bff34f8fbff36f8f1ce08af323
:104d680010884ff0ff3003b0bde8f08fbff34f8fce
:104d7800bff36f8f2644a0443f1b47d026f00f0592
:104d880006f00f0cccf11004bc4228bf3c46d9f801
:104d9800143013f4803fd9d1bff34f8fbff36f8f17
:104da800eff3108a72b6dff874b095e80f008be85d
:104db8000f00224641460beb0c0003f0d7f82946ba
:104dc800584602f03df90028c9d002f075ff0028c6
:104dd800fbd142f210730193019b5a1e01922bb131
:104de80000bf019b5a1e0192002bf9d18af310884b
:104df800d9f8143013f4803fb8d0bff34f8fc9f8f7
:104e08005c52bff34f8fbff36f8fafe70020aae765
:104e18000020a8e73f4b402000ed00e0b84a4020c2
:020000040000fa
:020000040040ba
:104e2800002869d070b588b00546d0f8cc61002e4e
:104e380064d04ff6fe7081422dd04ff6fd7081424e
:104e48003bd04ff6fc73994249d02c7904f07f048b
:104e58008df81f40012304930df11f020392029362
:104e6800002301930093ff224ff6fe712846fef7b8
:104e780081fb2146224802f007f9d5f8c43113b165
:104e88009a6a01329a62013404f07f0486f8084174
:104e9800002008b070bd0bb90120fae7117801f0c5
:104ea8007f01184802f0f0f8d5f8c43113b1da6a76
:104eb8000132da6201207070ebe70bb90120e8e7f4
:104ec800117801f07f01104802f0def8d5f8c431fe
:104ed80013b15a6b01325a630120b070d9e70b48fd
:104ee80002f0d2f8002386f8083133707370b3707b
:104ef800a6f802310120cce7002070470020c8e75f
:104f0800c8134000781340008c134000a4134000dd
:020000040000fa
:020000040040ba
:104f1800f8b5334b1d6815b195f8413003b9f8bda4
:104f2800304b0120187095f83830022b16d8042a17
:104f3800f5d90e68a6f58403b3f5801f16d3a6f538
:104f4800a403b3f5602f31d33146274802f09cf80b
:104f580001223146284602f059fee0e7032aded94d
:104f680002460968284602f051fed8e700274ff4a8
:104f780084001e4b034403f50073141fa4b2a21946
:104f88009a4218d8ab682246043130469847e8b9a7
:104f9800eb6b2344eb6385f84070022385f83830c7
:104fa80000223146284602f031feb8e701274ff4c7
:104fb800a4000f4bdee71a4639460e4802f064f8a3
:104fc80001223146284602f021fea8e70122314697
:104fd800284602f01bfe052385f838309fe700bffe
:104fe800184b40203d4b40200809400000fe0f00b0
:084ff80000fe0d003409400029
:020000040000fa
:020000040040ba
:105000002e4b1b68002b57d070b5adf5027d0446c2
:10501000084601212a4b197000f072ffc5b2012d1c
:1050200027d8012d14bf4ff484014ff4a40102ab23
:10503000009301232348244a9d4218bf02461f487b
:105040000068fff741f8064618bb04f60804012281
:105050001e49204602f011fe2a461d49204602f054
:10506000f5fe164b1b685b6a079898470df5027da5
:1050700070bd032384f8153804f608040022134990
:10508000204602f0fafd134a1349204602f06bf85d
:10509000ece7022384f8153804f6080400220b49d3
:1050a000204602f0eafd304601f0befe02460a4903
:1050b000204602f058f8d9e7704700bf184b40204f
:1050c0003d4b402000fe0f0000fe0d006808400030
:0c50d000700840006c08400078084000a8
:020000040000fa
:020000040040ba
:1050dc0030b585b005460c462a4b197003f076f8ae
:1050ec00294b1860294b4ff0ff321a60012c01d963
:1050fc0005b030bd4cbb264b00930123254a4ff421
:10510c0084012846fef7daff034688b9204a9369e2
:10511c000393d3680293536a019313890093d38842
:10512c009288211e18bf01211b4801f0abffdfe75d
:10513c00184601f073fe02460021184801f0a2ff48
:10514c0001212846fff7c4ffd2e7114b009301233e
:10515c00134a4ff4a4012846fef7b0ff034600287b
:10516c00d4d0184601f05afe024601210b4801f03a
:10517c0089ff0c4801f086ff02212846fff7a8ffa3
:10518c00b6e700bf5a4c40201c4b4020544c4020ea
:10519c00483e402000fe0f0070074000a80740006a
:0851ac0000fe0d00cc074000dd
:020000040000fa
:020000040040ba
:1051b4002de9f04182b02b4cb4f86c300093636e4f
:1051c400294a0121201d02f0d3fab4f8703000936b
:1051d400a36e264a022104f1340002f0c9fa002524
:1051e40084f8745084f87550a567e567dff89480f7
:1051f4002146404603f016f81d4f2146384603f079
:105204000bf8e1261b4b9e60b4f8ec300093d4f805
:10521400e430194a032104f1840002f0a9fab4f835
:10522400f0300093d4f8e830144a042104f1b400b7
:1052340002f09efa84f8f45084f8f550c4f8f8505b
:10524400c4f8fc5080342146404602f0f7ff214662
:10525400384602f0edff0a4b9e60284602b0bde8d6
:10526400f08100bf444b4020fc1340000814400070
:10527400d1754000001a0e40141440002014400060
:0852840000080e40d564400053
:020000040000fa
:020000040040ba
:10528c0070b50468a4f10153b3f5c02f00d970bdfb
:10529c000646456800f08afd72b600234ff0e02206
:1052ac00136129484ff0ff3100eb8302c2f88010e4
:1052bc00c2f880110133082bf6d126f07f06234b60
:1052cc009e605b6913f4803f24d0204b0022c3f80e
:1052dc008420bff34f8fd3f88030c3f3c90ec3f3d0
:1052ec004e334fea431c43f6e07618480cea0601ad
:1052fc00734641ea8372c0f87422013bb3f1ff3f5d
:10530c00f7d1acf1200c1cf1200fefd1bff34f8f74
:10531c00bff36f8f0d4b5b6913f4003f0bd0bff3e2
:10532c004f8fbff36f8f094b0022c3f85022bff38e
:10533c004f8fbff36f8fbff34f8fbff36f8f84f31c
:10534c000888a847fee700bf00e100e000ed00e0a0
:020000040000fa
:020000040040ba
:10535c002de9f84f9a46ddf8289052ea090355d00a
:10536c008b46174602f08afe0546002851d003688a
:10537c004ff480721a6002f0dffd4f4534bfa9eb89
:10538c0007084ff00008b844284602f035fa002808
:10539c0041d0b8f1000f1dd0002634460ee028464f
:1053ac0002f041fa002838d02b689b69baf1000f43
:1053bc0001d00af806300136a0450bd0a7422b6865
:1053cc008cbf1bf80420ff22da610134b145e6d80a
:1053dc00a04512d802f058ff04462b685b6913f401
:1053ec00007f11d102f050ff001b6b689842f4d380
:1053fc00ab680133ab60032009e0284602f0fcf9ee
:10540c000028dbd1032002e0002000e00120bde8f1
:0e541c00f88f0120fbe70320f9e70320f7e7f4
:020000040000fa
:020000040040ba
:02542a00fee79b
:020000040000fa
:020000040040ba
:10542c002a4a116a2a4b0b431362936e13f0010f35
:10543c00fbd0264a116a274b0b431362936e13f46d
:10544c00803ffbd0214a116a234b0b431362936eae
:10545c0013f4003ffbd01d490b6a204a1a40204b25
:10546c0013430b620a46936e13f4003ffbd0174ba9
:10547c001c4a9a621a46936e13f0020ffbd0134a21
:10548c00136b23f070031363936e13f0080ffbd0b0
:10549c000e4a136b23f4407343f480731363936ebf
:1054ac0013f0080ffbd0094a136b23f0030343f0ee
:1054bc0002031363936e13f0080ffbd0034b0a4add
:1054cc001a614ff48052c3f80021704700060e4059
:1054dc0001ff370000003701080037008fffc8ffbd
:0c54ec0020003700013f1320809c0300cb
:020000040000fa
:020000040040ba
:1054f8002de9f843294b1b78002b4cd00327dff804
:10550800b48026e001341835202c1dd00123a34097
:105518003342f7d0224a1178e2b29142f2d9697a3d
:10552800fab29142eed12a78012aebd1d8f80020bc
:1055380022ea0303c8f800302b6998472b7a022b1c
:10554800e0d100232b70dde7013f7fb2b7f1ff3fc9
:1055580004d0d8f80060134d0024d7e7124b1f6819
:10556800124d0024012604e0984701341435202cfc
:1055780011d006fa04f33b42f7d00d4a1178e2b293
:105588009142f2d908490a6822ea03030b602b69a1
:10559800002be9d1e9e7bde8f88300bf3c4b402088
:1055a8003b4b402018464020104b4020ac48402040
:0855b8003a4b4020144b402047
:020000040000fa
:020000040040ba
:1055c000002853d070b586b00c46054600294bd054
:1055d00041f22822002102f075fd2e4646f8084bc4
:1055e00002f0fcf90df1040e8446bce80f00aee8b1
:1055f0000f00dcf80030cef800301123adf80e308b
:105600006023adf80830adf80a300023adf80c3057
:105610008df8163004964ff48063adf8143001a86d
:1056200000f032f86860d0b1114b03606b68114a2a
:105630005a6005f58053012283f824220e4b1d6029
:105640000e4a4ff48071204602f028fbf9236022b5
:1056500010210b4801f01cfd002006b070bd094868
:1056600001f016fd0120f8e70120f6e70120704760
:105670003b794000bf7c4000204b40204d804000e3
:08568000c80e4000a00e40001e
:020000040000fa
:020000040040ba
:1056880070b588b0054602f041f8ec68002c51d09e
:1056980002462b8a834250d36e890021204602f0ad
:1056a8000dfd04f11003e36004f148032362aa88a6
:1056b800033222f003021344e362ea88033222f041
:1056c800030213446363721c92b202eb820103eb80
:1056d8008103a363033222f00302134463612b891d
:1056e8002383ab7c2bb194f8433043f0200384f838
:1056f8004330ab8823850023a384e384ea88628649
:10570800a3876a890132e28784f842302a682261d5
:10571800a4f8443003ad0a4e0fce0fc533682b6092
:1057280008ab13e903008de8030003ab0ecb20465a
:1057380001f0f2fc204608b070bd0024fae700bf73
:04574800108040008d
:020000040000fa
:020000040040ba
:10574c0070b506460568446800f030fb72b600235d
:10575c004ff0e022136129484ff0ff3100eb830238
:10576c00c2f88010c2f880110133082bf6d126f054
:10577c007f06234b9e605b6913f4803f24d0204b43
:10578c000022c3f88420bff34f8fd3f88030c3f3cb
:10579c00c90ec3f34e334fea431c43f6e076184868
:1057ac000cea0601734641ea8372c0f87422013b8d
:1057bc00b3f1ff3ff7d1acf1200c1cf1200fefd16e
:1057cc00bff34f8fbff36f8f0d4b5b6913f4003f2b
:1057dc000bd0bff34f8fbff36f8f094b0022c3f871
:1057ec005022bff34f8fbff36f8fbff34f8fbff3b9
:1057fc006f8f85f30888a047fee700bf00e100e04b
:04580c0000ed00e0cb
:020000040000fa
:020000040040ba
:10581000902910b50fdc7f2913dd8039102910d8ad
:10582000dfe801f02b2b360f110f0f0f200f0f0f9a
:105830000f0f0f0f3600c02944d0f02942d0a02905
