:020000040000fa
:020000040040ba
:10000000f0ff4520e13c400007434000b74d400071
:10001000af6740007b6b40008b6c4000000000002d
:10002000000000000000000000000000df3c400075
:100030001f61400000000000df3c4000a174400050
:10004000df3c4000df3c4000df3c4000df3c400044
:10005000df3c4000df3c4000df3c4000c964400022
:10006000df3c400000000000df3c4000df3c40007f
:10007000df3c4000df3c4000df3c4000df3c400014
:10008000df3c4000df3c4000df3c4000df3c400004
:10009000df3c4000df3c4000df3c4000df3c4000f4
:1000a000df3c4000df3c4000df3c4000df3c4000e4
:1000b000df3c4000df3c4000df3c4000df3c4000d4
:1000c000df3c4000df3c4000df3c4000df3c4000c4
:1000d000df3c4000df3c4000df3c4000df3c4000b4
:1000e000df3c4000df3c4000df3c4000df3c4000a4
:1000f00069644000df3c4000df3c4000df3c4000e2
:10010000df3c4000df3c4000df3c4000df3c400083
:10011000df3c4000df3c4000000000000000000029
:10012000df3c4000df3c4000df3c4000df3c400063
:10013000df3c4000df3c400000000000df3c4000ae
:10014000df3c4000df3c4000df3c4000df3c400043
:10015000df3c4000df3c4000df3c4000df3c400033
:08016000df3c4000df3c4000e1
:020000040000fa
:020000040040ba
:10016800f8b500bff8bc08bc9e467047b16c4000ab
:10017800f8b500bff8bc08bc9e4670478d6c4000bf
:020000040000fa
:020000040040ba
:08018800dc280000010000006a
:020000040000fa
:020000040040ba
:100190004b657920276a273a2054696d656f75741d
:1001a00000000000312e322e3200000052656672cf
:1001b000657368202d3e2078424c44205b432e48d6
:1001c0005d56657273696f6e3a2025732c205469f1
:1001d000636b3d256c7500004b6579202730273a0d
:1001e000205469636b3d256c750000004b657920d8
:1001f0002731273a2053656e64696e672078434c37
:10020000492070696e672073656c662d7465737420
:100210000000000070696e67203132333435000011
:100220005b4652414d5d2057726974696e672025a7
:100230007520627974657320746f203078253036ac
:100240006c583a005b4652414d5d20573a202530ac
:10025000325820253032582025303258202530326f
:100260005820253032582025303258202530325839
:1002700020253032580000005b4652414d5d20572a
:1002800072697465204f4b005b4652414d5d2057ab
:1002900072697465204641494c4544202873746155
:1002a0007475733d256429005b4652414d5d2052b3
:1002b000656164696e6720257520627974657320b5
:1002c00066726f6d2030782530366c582e2e2e00d9
:1002d0005b4652414d5d20523a2025303258202550
:1002e00030325820253032582025303258202530e1
:1002f00032582025303258202530325820253032cf
:10030000580000005b4652414d5d205265616420fb
:100310004641494c454420287374617475733d25ea
:10032000642900005b424155445d205541525430e0
:10033000202d3e20256c7520627073005b42415574
:10034000445d2053657269616c5365747570204615
:1003500041494c454420666f7220256c75206270bf
:10036000730000005b5359535d20536f6674207215
:10037000657365742e2e2e004b657920276a273a07
:1003800020507265737320616761696e20776974ac
:1003900068696e20327320746f20666f7263652007
:1003a0006a756d70000000004b657920276a273a56
:1003b00020476f74210000004b657920276a273a97
:1003c00020466f726365206a756d7020746f2061be
:1003d000707020307825303858000000424f41526c
:1003e00044320000424f4152443100005b78424c9d
:1003f000445d204175746f626f6f742061726d652a
:10040000643a20736c6f74203020696e20257573f8
:1004100020756e6c65737320436f6d6d616e642023
:100420006f7220436f6e736f6c654b6579206973d3
:100430002064657465637465642e00007854502be5
:1004400078434c492072656164792e2020434d44e5
:100450003d3078253034582020524553503d307877
:10046000253034580000000078424c44205b432e75
:10047000485d56657273696f6e3a202573000000ff
:1004800048572056657273696f6e20495353202d6b
:1004900020312e302e30207c20426f6172643a2051
:1004a000257300000d0a0000556e6b6e6f776e208d
:1004b000636f6d6d616e643a20220000222e20571a
:1004c00072697465202268656c702220666f7220e4
:1004d00061206c697374206f6620617661696c615c
:1004e000626c6520636f6d6d616e64730000000067
:1004f0001b5b2575256300001b5b73001b5b750090
:100500003e200000200000001b5b43001b5b4400fa
:100510001b5b50002d6800002d2d68656c7000007d
:100520001b5b400048656c70206973206e6f7420ff
:10053000617661696c61626c65000000202a2000b0
:10054000436f6d6d616e64202268656c702220724d
:1005500065636569766573206f6e65206f72207aba
:1005600065726f20617267756d656e74730000004f
:1005700068656c70000000005072696e74206c69d0
:100580007374206f6620636f6d6d616e647300001d
:100590005b78424c445d20536c6f742025753a2083
:1005a0007625752e25752e2575206275696c643d3e
:1005b000256c752073697a653d256c7520637263bf
:1005c0003d307825303858005b78424c445d2053ec
:1005d0006c6f742025753a207665726966792046bd
:1005e00041494c4544202825732900005b78424c42
:1005f000445d20426f746820736c6f747320666171
:10060000696c6564202d2073746179696e67206957
:100610006e20626f6f746c6f616465722e000000f3
:1006200078424c44000000006c69620068775f69a2
:1006300064000000736c6f74730000007365635f87
:10064000737a000073305f686472000073315f6812
:100650006472000073305f6d6178000073315f6d0c
:10066000617800006864725f737a0000737461746b
:100670006500000077725f6d61780000626f6172e3
:10068000645f6964656e74006f6b00006261642072
:10069000736c6f7400000000657272005b78424cee
:1006a000445d2045726173696e6720736c6f7420be
:1006b00025752040203078253038582073697a65b8
:1006c0003d3078253038582e2e2e00005b78424c75
:1006d000445d20457261736520736c6f74202575cd
:1006e000204f4b00726573756c740000696d675f15
:1006f000737a0000637263003f000000735f6e61f5
:100700006d6500007772697474656e00616464726f
:10071000000000006c656e00646174610000000000
:10072000636f756e740000005b78424c445d205727
:10073000726974653a2061646472203078253038bb
:1007400058206e6f7420696e20616e7920736c6f13
:10075000740000005b78424c445d205772697465f8
:100760003a206f766572666c6f7720736c6f7420b9
:10077000257520656e643d307825303858000000be
:1007800078424c4420696e666f0000006270696eaa
:1007900067000000457261736520736c6f74205ba5
:1007a000307c315d0000000062657261736500009d
:1007b00056657269667920736c6f74205b307c318a
:1007c0005d00000062766572696679004a756d7039
:1007d00020746f20736c6f74205b307c315d00007f
:1007e000626a756d70000000424c2073746174651c
:1007f0000000000062737461747573005265616477
:1008000020666c61736800006272656164000000bc
:10081000426f6f7420636f756e74000062636f7552
:100820006e740000426f6f7420686973746f727920
:100830000000000062686973746f72790000000044
:100840005b78424c445d20496e6974204f4b2e20ea
:10085000736c6f74733d25752057525f4d41583d41
:100860002575204844525f535a3d2575000000000d
:100870005b78424c445d20424c2072657175657313
:1008800074656420766961207368617265642052c2
:10089000414d202d2073746179696e672e00000030
:1008a0005b78424c445d20416374697669747920b9
:1008b0006465746563746564202d2073746179695f
:1008c0006e6720426f6f744d6f64652e00000000ec
:1008d0005b78424c445d20536c6f74202575206218
:1008e0006f6f74696e6720696e202564732e2e2edb
:1008f000000000005b78424c445d204a756d7069d1
:100900006e6720746f20736c6f742025752e2e2ee9
:10091000000000005b78424c445d20426f6f744dd4
:100920006f6465202d206175746f626f6f74207223
:100930006574727920696e202564732e2e2e000056
:100940005b78424c445d2049646c652074696d6538
:100950006f7574202d207265747279696e672061dd
:1009600075746f626f6f742e0000000049444c452f
:1009700000000000524541445900000057524954bc
:10098000494e4700444f4e4500000000564552492d
:1009900046494544000000004552524f52000000b5
:1009a0005b78424c445d205665726966793a2066f0
:1009b0006c6173685f72656164206865616465720b
:1009c000204641494c4544005b78424c445d2056ea
:1009d00065726966793a206d616769633d30782593
:1009e000303858206578706563743d30782530382c
:1009f000580000005b78424c445d20566572696681
:100a0000793a2068775f69643d257520657870655f
:100a100063743d25750000005b78424c445d2056b0
:100a200065726966793a20696d6167655f73697a95
:100a3000653d2575206d61785f73697a653d257523
:100a4000000000005b78424c445d20566572696688
:100a5000793a206c6f61645f616464723d3078251f
:100a6000303858206578706563743d3078253038ab
:100a7000580000005b78424c445d20566572696600
:100a8000793a206864725f6372632063616c633dce
:100a90003078253038582073746f7265643d307833
:100aa00025303858000000005b78424c445d2056e9
:100ab00065726966793a20696d675f637263206366
:100ac000616c633d3078253038582073746f7265df
:100ad000643d307825303858000000005b78424c87
:100ae000445d205665726966793a20414c4c20502d
:100af000415353004f4b00004552525f4d4147490f
:100b0000430000004552525f48575f4944000000cf
:100b10004552525f53495a45000000004552525f0a
:100b20004844525f435243004552525f494d475f2c
:100b3000435243004552525f41444452000000007a
:100b40004552525f554e4b4e4f574e00556e6b6e91
:100b50006f776e005b424f4f545d204e6f74207272
:100b600065636f7264656420796574005b424f4f02
:100b7000545d202d2d2d2d20426f6f7420496e66ff
:100b80006f202d2d2d2d00005b424f4f545d2043d3
:100b90006f756e742020203a202575202830782526
:100ba00030345829000000005b424f4f545d204311
:100bb000617573652020203a203078253032582026
:100bc00028257329000000005b424f4f545d2048e8
:100bd0006973746f7279203a205b305d3d25303245
:100be00058205b315d3d25303258205b325d3d251c
:100bf000303258205b335d3d25303258205b345d08
:100c00003d25303258205b355d3d25303258205b24
:100c1000365d3d25303258205b375d3d25303258fa
:100c2000000000005b424f4f545d202d2d2d2d2dd7
:100c30002d2d2d2d2d2d2d2d2d2d2d2d2d2d2d0011
:100c4000504f522f424f52004261636b75702f57c5
:100c5000616b6555700000005761746368646f676d
:100c600000000000536f6674776172650000000039
:100c700055736572284e5253542900005b78434cdb
:100c8000495d203e3e20524553502020636d643d17
:100c9000307825303258207365713d257520737486
:100ca0003d30782530325820667261673d25752fba
:100cb0002575202025752062797465730000000079
:100cc0005b78434c495d2078434c495f496e6974b9
:100cd0003a20656d626564646564436c694e65774e
:100ce000206661696c6564005b78434c495d2078df
:100cf000434c495f496e69743a204f4b20206d6127
:100d0000785f636f6d6d616e64733d257520206d36
:100d100061785f636d645f7374723d257520206632
:100d20007261675f6d61783d257500005b78434cab
:100d3000495d2078434c495f5265676973746572f9
:100d4000436f6d6d616e643a2075706461746564a3
:100d50002020736c6f743d25752020636d645f697e
:100d6000643d30782530325820206e616d653d2716
:100d7000257327005b78434c495d2078434c495fdd
:100d80005265676973746572436f6d6d616e643a25
:100d9000207461626c652066756c6c005b78434cf6
:100da000495d2078434c495f526567697374657289
:100db000436f6d6d616e643a20656d626564646554
:100dc00064436c6941646442696e64696e6720665d
:100dd00061696c656420666f7220272573270000a7
:100de0005b78434c495d2078434c495f52656769a5
:100df00073746572436f6d6d616e643a20736c6fce
:100e0000743d25752020636d645f69643d307825ed
:100e100030325820206e616d653d27257327000014
:100e20005b78434c495d203c3c2069643d3078252b
:100e300030345820206469723d3078253032582093
:100e400020636d643d307825303258202073657101
:100e50003d257520206c656e3d2575005b78434c03
:100e6000495d202020206e6f742052455155455316
:100e700054202d2069676e6f72696e670000000054
:100e80005b78434c495d20202020636d645f69647a
:100e90003d307825303258204e4f542072656769b6
:100ea000737465726564202d3e20554e4b4e4f572e
:100eb0004e5f434d440000005b78434c495d202069
:100ec000202064697370617463683a20636d645fa5
:100ed00069643d30782530325820736c6f743d253d
:100ee00075206e616d653d27257327005b78434c47
:100ef000495d2053656e6452657175657374202079
:100f0000636d645f69643d3078253032582020730a
:100f100065713d25752020636d643d27257327008d
:100f20006563686f00000000322e302e3000000034
:100f3000667700006877000061636b004c6973742a
:100f400020616c6c207265676973746572656420da
:100f5000636f6d6d616e6473000000004563686fc0
:100f600020612033322d6269742074696d65737459
:100f7000616d700070696e67000000005265706fef
:100f80007274206669726d776172652f6861726430
:100f9000776172652076657273696f6e000000007c
:100fa00076657273696f6e005265626f6f7420644c
:100fb0006576696365205b64656c61795f6d735dff
:100fc000000000007265626f6f7400007854505f1b
:100fd000496e69742050583d3078253032580000f1
:100fe00045525220535441525432203078253032e9
:100ff0005800000045525220544d20676f743d3018
:101000007825303258206578703d30782530325858
:1010100000000000455252207061796c6f616420bd
:101020006f766572666c6f77000000004543432061
:10103000636f727265637465642031422028435285
:10104000433136207265747279290000455252206e
:1010500043524331362063616c633d307825303430
:101060005820726563763d30782530345800000092
:101070004552522053544f50312030782530325849
:10108000000000003c3c20476f742069643d3078cc
:1010900025303258206c3d25750000004552522005
:1010a00053544f5032203078253032580000000021
:1010b00054494d454f55542073746174653d256402
:1010c000000000005b4152515d20496e697420743c
:1010d0006f207573650000005b4152515d205345e0
:1010e0004e44207365713d25752069643d30782537
:1010f000303258206c656e3d257500005b415251c1
:101100005d2052455452414e534d495420736571f0
:101110003d25752072657472793d257500000000cb
:101120005b4152515d2041434b2072656365697696
:101130006564207365713d25750000005b41525167
:101140005d204e41434b207265636569766564207e
:101150007365713d257500005b4152515d20544916
:101160004d454f5554207365713d257500000000b5
:101170005b4152515d204641494c454420736571a5
:101180003d25752061667465722025752072657431
:1011900072696573000000005b4152515d20525836
:1011a0002041434b207365713d2575005b415251d1
:1011b0005d205258204e41434b207365713d25758b
:1011c000000000005b4152515d2052535420667272
:1011d0006f6d2072656d6f7465203e20736f66744d
:1011e0002d726573657400005b4152515d20545847
:1011f0002041434b205365713d2575005b415251a1
:101200005d205458204e41434b205365713d257558
:10121000000000005b785d20000000005541525442
:10122000325f52580000000055415254325f54580a
:101230000000000055415254305f52580000000039
:0912400055415254305f5458002e
:020000040000fa
:020000040040ba
:02124a007047eb
:020000040000fa
:020000040040ba
:10124c000368002b00f03f832de9f04f8bb006466e
:10125c00c46894f8333013f0020f40f0fe8043f072
:10126c00020384f83330216806f04af9f5e0a5f161
:10127c004003dbb23e2b00f2eb80f76897f833307b
:10128c0023f0080387f83330a5f14103dbb2012bbf
:10129c0015d9432d75d0442d40f08880b7f8348093
:1012ac00f86906f031fb804580f0d28008f1010826
:1012bc00a7f83480b049304606f022f9c8e0d6f8d9
:1012cc000c80b8f80c30002be5d0412d10d0b8f8bc
:1012dc000a30002bdfd0304605f02afbd8f800107e
:1012ec00304606f00df9b8f80a10013989b20fe052
:1012fc00b8f80a209a4259d0304605f019fbd8f8b4
:10130c000010304606f0fcf8b8f80a10013189b22a
:10131c00a8f80a1079b3b8f80c308b422ed3d8f851
:10132c00040006f0fdfa82460028944b08bf9a464a
:10133c00504606f0e9fa81461ffa80fb5a465146a0
:10134c00d8f81c0006f0d4fad8f81c304ff0000a7c
:10135c0003f80ba0a8f82090d8f81c10304606f023
:10136c00cff8b8f82030a8f83030a8f834a03046c0
:10137c0004f0acfb8fe7dff804a2d9e7dff8fca19f
:10138c00d6e7bb8e5bb9462d62d1b98e00295fd0f2
:10139c000122304605f0a2fd0023bb8658e0013b3c
:1013ac00bb867749304606f0abf8ece7482d0ed1fa
:1013bc00bb8e398c8b424bd2c91a002289b2304673
:1013cc0005f08cfd3b8cbb867e2d41d109e07e2d3a
:1013dc00d9d197f83230312b00f0e381372b00f064
:1013ec00e08197f83230342b00f0d081382b00f0ac
:1013fc00cd8197f83230332b2ad1b7f83480b8f13d
:10140c00000f25d0d7f81c90484606f07dfaa0ebcb
:10141c000800411c42464944484405f051fc3b8cb1
:10142c00013b3b84bb8e013bbb865649304606f0e4
:10143c0067f80de043f0080384f833305b2507e0d0
:10144c007f2d33d0a5f12003dbb25e2b40f25a8105
:10145c00304604f03bfb84f83250e28aa38a9a426d
:10146c00c0f07c8100f080812269d55c01339bb295
:10147c00228bb3fbf2f102fb1133a38294f83330cd
:10148c0013f0080f7ff4f3ae94f832701b2f08bfe3
:10149c005b2d0cbf01270027ccd00d2d00f0f18166
:1014ac00ced8a5f10803dbb2022bcbd80a2d14bf82
:1014bc0000220122d6f80c8098f832300d2b01d185
:1014cc00002ac5d10d2d14bf00230123eae13046bb
:1014dc0003f01eff2c49304606f012f8b8f8203005
:1014ec008bb90023a8f82030d8f81c201370a8f86a
:1014fc003030a8f80a30a8f83430d8f8001030464c
:10150c0005f0feffa4e7d6f80c90b9f820100029de
:10151c00e7d0d9f81c300093194413f8012b202a7a
:10152c0040f0a0818b42f8d1dbe7b9f80c30002bee
:10153c0000f08581d9f8042007924ff0010a049439
:10154c0005951d4614460696009e5146204606f00b
:10155c00f2f90190314606f0f9f9002800f03181da
:10156c000af1010a1ffa8afa5545eed2049c059d30
:10157c00069eb9f80ca040e10c0540001812400082
:10158c000805400010054000a4044000d8b1002913
:10159c0018bf5f460133b9f82020934219dad9f805
:1015ac001c2002eb030cd25c202aefd079b100286e
:1015bc0014bf002207f00102002a18bf1746002aa8
:1015cc0018bf6046e6e700228cf80020dfe7614692
:1015dc00e0e78246d9f81c30134400225a700029e7
:1015ec003ff47fafb9f82c20a2b1d9f8243002eb2c
:1015fc00820b0027009401950c461d4655f82710c8
:10160c00204606f0a3f9e0b105375f45f6d1019d00
:10161c002146009c7368002b4dd00891cdf824a076
:10162c0099f8333043f0100389f83330736808a904
:10163c003046984799f8333023f0100389f833304b
:10164c004fe72146009c2b46019d4fea870b03eb8d
:10165c0087031a69002addd01b7acbb999f833308d
:10166c0043f0100389f83330baf1000f14d09649c7
:10167c00504606f06bf920b19449504606f066f9d5
:10168c0050b9d9f824105944304605f051fe0be0fe
:10169c00504604f0e7fae1e7d9f824305b441f69bf
:1016ac00da6851463046b84799f8333023f01003c6
:1016bc0089f8333015e7304605f09cfc11e7b8f893
:1016cc002020b8f834309a427ff7c2ae80493046b9
:1016dc0005f016ff7f49304605f012ffd8f81c7054
:1016ec00384606f011f9b8f83420811a481e013238
:1016fc003944384405f0e4fab8f82030013ba8f836
:10170c002030a5e6f7683b8c02337a8c9342bff607
:10171c009faed7f81c90484606f0f6f8ba8ea0ebb0
:10172c00020808f10100013209eb0801484405f0f8
:10173c00c7fa3b8c01333b843b8e01333b86fb6900
:10174c0003f80850bb8e23b93368294630469847b6
:10175c007ee66149304605f0d3fef5e7218b0a445d
:10176c0092b293427ff480ae94f8333013f0010fb1
:10177c0009d000232384e269137094f8333023f0ea
:10178c00010384f833300bb0bde8f08fb98e00291b
:10179c003ff45eae0122304605f0a0fb0023bb8671
:1017ac0056e6bb8e398c99427ff61bae04e6019c43
:1017bc00039d049f05990846029b184405f080fa86
:1017cc003de0049c2b46059d069e5a1ea9f80c2054
:1017dc009a450dd0ddf804a0504606f095f8411c52
:1017ec0050465144079bca1a039b9a1a05f068fa93
:1017fc00b9f80ca0baf1000f21d0d9f80430059338
:10180c000194544603950497ddf808a01f46214621
:10181c00384606f085f8054606f076f8421ced1bb6
:10182c002a44b9f808309b1a9a45c0d9013ca4b295
:10183c00a9f80c40002cead1019c039d049f029a4c
:10184c000099d9f8040006f053f8b9f80c300133bc
:10185c00a9f80c30b9f820307bb9d9f81c3000222b
:10186c005a703ee6009806f04ff8b9f8083003932a
:10187c00421c02929342bff458ae00210b4608461c
:10188c008de60a2d14bf00220122d6f80c800d2df6
:10189c0014bf0023012398f832100a2902d1002b1f
:1018ac007ff4d6ad53ea020b7ff411ae082d3ff452
:1018bc0006af7f2d3ff403af092d7ff4c9ad304641
:1018cc0003f026fdc4e570471405400018054000e0
:0c18dc000c0540001005400020054000f5
:020000040000fa
:020000040040ba
:1018e8002de9f04f2ded0a8b92ed008b8db01e4641
:1018f800b5eec08b0b69d1f808a0cc680590f1ee65
:1019080010fad1e9009b069307d419f0040f30d1df
:1019180019f008052fd0202302e02d23b1ee488bc3
:1019280023700af1ff32012518ee903a18ee100ada
:1019380023f00041bc4b4ff00008994208bf4045d6
:101948001bd1413e192e94bfb849b949601906f018
:1019580081f9b74805f0daffcdf800900246534602
:101968000598214604f0fcf90db0bdec0a8bbde8e2
:10197800f08f2b23d4e75246d6e780458b41a6f15a
:101988004103039308d2192b94bfaa49aa496019a5
:1019980006f060f9a848dde730216155b5ee408bc7
:1019a8000399b7ee009b192905f101038cbf782133
:1019b8005821f1ee10fae15405f10205a2f10202f4
:1019c80040f0ec80b0ee49bbb0ee48cbbbf1000f65
:1019d8009fed8fabacbf5b461823591c002700bf97
:1019e8008cee0b0bcde90731049203f035fcbbf10b
:1019f800000f00ee4bcbdde907312bee0abb049a52
:101a080007f1010704dab5ee40cbf1ee10fa02d087
:101a18008f42e5d15f1cb2ee007b2bee077bb4ee64
:101a2800c7cbf1ee10fa00f1dc80b4ee47cbf1ee53
:101a380010fa09d1bdeec00b9fed776b10ee103a8e
:101a480013f0010f06fe077b38ee078b18ee903a6d
:101a580018ee10ca744923f000400023884208bfda
:101a68009c453ff46eaf06990539a942079140f2ab
:101a78001481794208912e46ae461f46049300bf52
:101a880088ee090bcde90a23cdf824e003f0e4fb46
:101a9800fdeec07bdde909e2b0ee40bb17ee900a2f
:101aa8000b9b002840f0a080002b00f09d800137a0
:101ab80008990bee498b013b8b4229ee0a9b03d018
:101ac80007998e42b646dbd3049bcbb9002f40f36f
:101ad800e580bbf1000f40f3e18019f0010f40f001
:101ae800dd80a3192e211970b9192144302000bfb7
:101af80003f8010f8b42fbd13e44ff4301363a44c1
:101b0800069b0021a019013b88450170b8bfc8f1a8
:101b18000008e1544ff00107b8bf01214ff00a0b4c
:101b280003f1ff3cb8f1000f40f0a580012f00f051
:101b3800a28000290cbf2b212d2104f80c10039939
:101b4800023b192904eb03018cbf4ff0700c4ff0d6
:101b5800500c9e4281f800c003da039206f07af82e
:101b6800039a09f00303022b11d11744033f002ff6
:101b78000ddd204605f0cafee319a84280f28980ef
:101b88003a463021601905f05dff4ff0000a204603
:101b9800e0e600bf08f10108b0ee479b39ee097b8b
:101ba800b4eec78bf1ee10faf4d5b6ee007b9feddc
:101bb8001c6b00bfb4eec98bf1ee10fa7ff502afd3
:101bc80029ee075bb5ee405bf1ee10fa08bf29ee8f
:101bd800069b08f1ff3808bf28ee068b29ee079b05
:101be800e8e79fed0d7b2fe7049941b93bb14ff032
:101bf8002e0c012104f80ec00136013a0491e119b6
:101c080004eb060c31444ff0300e19e0aff30080be
:101c1800000000000000b03f0000000000000000cd
:101c280000000000000050430000f07fd076400024
:101c3800d4764000d8764000dc7640000cf801eb02
:101c48008c45fbd1f119d71b039a0928d4bf303032
:101c58005730192a0ad840f02002613a192a05d8c3
:101c6800cde9093105f095ffdde909317a1e6054a7
:101c78004e1c00271ce7634698fbfbfe0eeb8e0c00
:101c8800a8eb4c0c0cf1300c04f803c0f046013ff3
:101c980046e7225c1a5401386fe72e4619f0100ff8
:0c1ca8003ff42eaf2e23a355013629e790
:020000040000fa
:020000040040ba
:041cb4000020704755
:020000040000fa
:020000040040ba
:101cb8002de9f04f2ded0a8b92ed009b8fb0b5ee1c
:101cc800c09b05938b680493f1ee10fa0b69cd68fd
:101cd8000690d1e900a78b46089308d41af0040fa0
:101ce80034d11af00803039332d0202302e02d23c5
:101cf800b1ee499b2b70049b03f1ff390123039339
:101d080019ee903a19ee101a23f00042c04b002445
:101d18009a4208bfa1421ed1059b0398413b192b4b
:101d280094bfbc49bc49284405f094ff284605f0f7
:101d3800edfd049bcdf800a002462946069804f064
:101d48000ff80fb0bdec0a8bbde8f08f2b23d1e75d
:101d5800ddf81090d4e78c42934108d2059b039894
:101d6800413b192b94bfad49ad492844dce7b5ee9a
:101d7800409bf1ee10fab2ee04cbb7ee00ab40f0a8
:101d8800c080059805f0fefe002fc0b2c0f2628147
:101d9800672840f0d580002f08bf0127231dc0f217
:101da800d180bc4280f2ce80002c4ff066080cda5d
:101db800b8f1660f07f1010707d1002c02dab7ee78
:101dc80000ab0024672800d027440023b0ee4a8bdc
:101dd800b0ee49bb8bee080b0993079003f03cfa71
:101de800099b90ee08bb01339f420798b1ee4bbbad
:101df80088ee0c8beed1b1ee047b28ee078bb4eea7
:101e0800cb8bf1ee10fa00f3a080b4ee4b8bf1ee21
:101e180010fa09d1bdeec00b9fed796b10ee103aa8
:101e280013f0010f06fe088b39ee088b2aee0c9b87
:101e3800b4eec89bf1ee10fa00f28a80b8f1660f92
:101e480004f1010440f0868001372146cb1b0022b3
:101e5800039f0a9316460a9b994240f0a580334691
:101e6800002e00f0df80e8190022b8f1650f02703b
:101e780029d1089b013b9442ea54bcbf6442012229
:101e88004ff0020b4ff00a0e591e002c40f0d18083
:101e9800bbf1000f00f3cd80002a0cbf2b222d22ae
:101ea8006a54059a023b413a192a05eb030198bf87
:101eb8004ff045089f4281f8008001da05f0cafe1c
:101ec800cb44abf104090af00303022b7ff42eafd5
:101ed800b9f1000f7ff72aaf284605f017fd05eb8b
:101ee8000903039a824240f3b18003984a4630219d
:101ef800284405f0a7fd0023049317e70134b0ee4a
:101f080047ab2aee0c7bb4eec79bf1ee10faf5d581
:101f18009fed3d7b00230be014f5967f05da23b98e
:101f280029ee079b2aee07ab0123013c8aee0cab96
:101f3800b4eeca9bf1ee10faeed422e706272de79d
:101f4800804635e74ff065083fe79fed2d8b6be73f
:101f5800b0ee4a9bb8f1650f14bf2146002175e722
:101f68004eb9002907da079e2e23ab550123013706
:101f780009f1ff391e46ab1805eb070c3b444ff03f
:101f8800300e01e00cf801eb9c45fbd1099b02ebfc
:101f9800070c3033a9eb020202f1ff3905f80c30c7
:101fa8000cf10107002223e0dbf810300797053b0e
:101fb800bb427ff654af88ee090bcde90c200b919c
:101fc80003f04af9fdeec07bdde90b1217ee90ca6b
:101fd8006346092ba8bf092309930af0100353eaa3
:101fe8000c0c0d98bcd16728bad10029b8da013297
:101ff80099ee008b0139b1ee488b89ee0c9b2ae7ec
:102008000000000000000000000000000000504335
:102018000000f07fd0764000d4764000d8764000ab
:10202800dc7640001af0100f1ebf2e23eb55013747
:1020380019e70b4694fbfefc0ceb8c01a4eb410169
:102048003031e95464460bf1ff3b1de72a5c1a5412
:10205800013846e767283ff471af80460627a7e6b0
:020000040000fa
:020000040040ba
:1020680070b588b005f0defdb54b1b78012b02d0aa
:10207800b44db54e1ae0b54b1a68831ab3f5fa6f2a
:10208800f6d90146b24804f0c3fc0023af4a1360f6
:10209800ab4a1370ece70a2c1bd007e0a4f16203eb
:1020a800dbb226fa03f313f0010f12d1284605f02c
:1020b800c3f80028c0f29c81c4b2722cf6d8612cf7
:1020c800ecd80d2c05d0e6d9a4f13003dbb2042bf3
:1020d800ecd8a04805f08efd342c5dd8092ce5d944
:1020e8000a3c2a2ce2d801a353f824f0f721400037
:1020f800b5204000b5204000f7214000b520400041
:10210800b5204000b5204000b5204000b520400073
:10211800b5204000b5204000b5204000b520400063
:10212800b5204000b5204000b5204000b520400053
:10213800b5204000b5204000b5204000b520400043
:10214800b5204000b5204000b5204000b520400033
:10215800b5204000b5204000b5204000b520400023
:10216800b5204000b5204000b5204000b520400013
:10217800b5204000b5204000b5204000b520400003
:10218800b5204000072240001522400029224000c7
:102198009f224000f12240006a2c00f0c180722c7e
:1021a80000f0aa80622c81d16b48037801336b4a16
:1021b800a2fb031202f4fe7101eb92029b1a037058
:1021c800674a52f8234006944ff40063079305f0da
:1021d80005fd0028fbd1002106a804f00ff900280e
:1021e80000f0858021465f4804f012fc5ee705f0a8
:1021f80019fd02465c495d4804f00afc56e705f003
:1022080011fd01465a4804f003fc4fe7594804f011
:10221800fffb594b42220221584803f0c7fb45e710
:1022280005f000fd0df117030df11f0c544c554935
:1022380004fb0010020c03f8012f6345f8d11022ab
:102248000821514804f0e4fb9df81f3004939df8e1
:102258001e3003939df81d3002939df81c300193a6
:102268009df81b3000939df81a309df819209df8b1
:102278001810464804f0ccfb082206a9102003f0e9
:10228800b1fc014618b9424804f0c2fb0ee74148c8
:1022980004f0befb0ae7102208213f4804f0b8fb0f
:1022a800082206a9102003f011fe0146c0b99df8c6
:1022b8001f3004939df81e3003939df81d30029340
:1022c8009df81c3001939df81b3000939df81a303f
:1022d8009df819209df81810304804f099fbe5e6a0
:1022e8002f4804f095fbe1e603f016fbdee62146f5
:1022f8002c4804f08dfbd9e62b4804f089fb05f047
:102308006dfc0028fbd1bff34f8f2849ca6802f43f
:10231800e062274b1343cb60bff34f8f00bffde74d
:1023280005f080fc0146064b1b78002b44d1074b77
:102338001860034b01221a701e4804f069fbb5e6c9
:10234800254b4020001a0e4001010100f84a4020a8
:1023580090014000e4494020244b4020cdcccccc17
:102368008479400024034000a4014000ac014000ef
:10237800d8014000ec014000140240002028402011
:102388000d6619005ff36e3c2002400044024000d5
:102398007802400088024000a8024000d0024000b5
:1023a800040340003c0340006403400000ed00e0eb
:1023b8000400fa05780340000e4b1c68041b2246f3
:1023c8000d4804f025fbb4f5fa6f0dd80b4c2146e7
:1023d8000b4804f01dfb204602f07afe0023054a54
:1023e8001360084a137061e6074804f011fbf5e72b
:1023f80008b070bdf84a4020a8034000000242001f
:0c240800b8034000254b4020900140002c
:020000040000fa
:020000040040ba
:102414002de9f047aeb00746164605914ff0000887
:10242400059d2b78002b00f0e08000244ff0ff3353
:10243400cde909430eab0c9380230b940d932b5dd4
:102444000bb1252b30d134b12946224638462544d8
:1024540004f0feff0595059b1a78252a40f0bc8000
:1024640003f10109cdf814904a46002113782b2b6f
:10247400104602f1010223d02ed8202b24d0232b86
:1024840026d001b105902a2b2ed004f0e7fa059a44
:102494000b900020114601320b78303b092b79d97f
:1024a400002830d005912ee00134c8e7099b43f0a1
:1024b400010309930121d9e7099b43f00203f8e7db
:1024c400099b43f00403f4e7099b43f00803f0e796
:1024d400099b43f01003ece72d2be7d0302bebd016
:1024e4000029d2d00590d0e733681a1d1b683260ea
:1024f4000130002b05900b9305da099a5b4282f0b8
:10250400010209920b93099bda0744bf23f00203eb
:102514000993059b1a782e2a0fd14ff0000acdf8a3
:1025240028a05a785d1c2a2a059535d102330593d3
:1025340033681a1d1b6832600a9305a804f026fd4f
:10254400059d0390287805f01ffb2528039900f0ca
:10255400da806138172800f2e080172800f2dd8065
:10256400dfe810f02b00db00b6004700a700a7004f
:10257400a700db004700db00db00db00db009e0084
:1025840065008300db00db00c700db005600db00d6
:10259400db00740001207de7284604f05ffa53460f
:1025a4000a90294601350a78303a092a03d9002bc2
:1025b400c3d00591c1e70123f3e7324606a804f02e
:1025c40069fe002872d06b1c059306aa2b7809a912
:1025d4003846fff787f904444444a04540f3a780f4
:1025e400544b4f221a604ff0ff3840462eb0bde8de
:1025f400f0873346012206a802f0cefd002855d00c
:10260400013506aa09a93846059503f0e9f8e2e779
:102614003346002206a802f0bffd002846d001354b
:1026240006aa09a93846059504f094f8d3e7334679
:10263400002206a802f0b0fd002837d0013506aa12
:1026440009a93846059503f02ffdc4e73346002257
:1026540006a802f0a1fd48b36b1c05932b7806aacb
:1026640009a9384601f0a8fab5e733460022f0215b
:1026740006a802f091fdc8b1dde906320135134325
:1026840005950bd12c4805f043f9099b00932a4981
:102694000b9b0246384603f065fb9ce77823dee794
:1026a400334608eb040206a803f070fd01350595d6
:1026b40092e7324606a804f0edfd0028f6d06b1c24
:1026c400059306aa2b7809a93846fff7f3fa82e79f
:1026d4008029ebd1336801351a1d1b6832608df8ef
:1026e40018300595012306aa09a9384604f006f80e
:1026f40071e78029dad13268131d3360013512681d
:1027040005950023f0e78029d0d1099b009301357a
:102714000b9b059509490122bce700234ff0ff32ca
:10272400cdf8149009930b930a920093f2e7a04614
:1027340076e600bf204b4020c8764000ce764000ad
:020000040000fa
:020000040040ba
:10274400884a40201c00000000000000e84a4020a5
:102754000400000000000000c84a40200c000000f3
:1027640000000000284a4020600000000000000033
:10277400ec4a40200c00000000000000444c4020c3
:102784000200000001000000ffff0000244b402075
:102794000200000000000000f84a4020040000008d
:1027a40000000000e4494020440000000000000054
:1027b4009c494020480000000000000020284020e0
:1027c4002812000000000000984740201401000077
:1027d4000000000048444020d00100000000000038
:1027e400e04a40200800000000000000fc4a4020ad
:1027f4000c00000000000000264b402001000000f7
:1028040000000000ac484020a000000000000000d0
:10281400274b402001000000000000001846402023
:102824008001000000000000284b4020010000004f
:1028340000000000a44a4020140000000000000032
:10284400084b40200400000000000000483e4020e7
:102854000002000000000000294b4020010000009d
:1028640000000000404c4020040000000100000073
:10287400ffffffff0c4b402004000000000000009d
:10288400464c40200100000001000000020000004e
:102894002a4b40200100000000000000483a40207c
:1028a4000004000000000000b84a402010000000ae
:1028b400000000002b4b402002000000000000003c
:1028c400d44a40200c00000000000000104b4020bf
:1028d40004000000000000002d4b40200200000016
:1028e40000000000304b4020000100000100000007
:1028f400001a0e400000000000000000000000006c
:1029040000000000000000000000000000000000c3
:1029140000000000000000000000000000000000b3
:1029240000000000000000000000000000000000a3
:102934000000000000000000000000000000000093
:102944000000000000000000000000000000000083
:10295400000000004842402048404020000200009f
:102964000002000000000000000000000000000061
:1029740000080e40000000000000000000000000fd
:102984000000000000000000000000000000000043
:102994000000000000000000000000000000000033
:1029a4000000000000000000000000000000000023
:1029b4000000000000000000000000000000000013
:1029c4000000000000000000000000000000000003
:1029d40000000000201440202000402000140000cb
:1029e40000140000000000000000000000000000cf
:1029f4002000402000280000000000004840402043
:102a04000004000000000000304c402010000000d2
:102a14000100000000c002400a00000000000000a5
:102a2400000000002f4b40200100000000000000c7
:102a3400144b402008000000000000004c494020d6
:102a440050000000000000001c4b40200800000063
:102a540000000000000000000000000066666666da
:020000040000fa
:020000040040ba
:102a64002de9f04786468c460846089e154674466e
:102a74001946002b40f0c2808242b2fa82f245d954
:102a84004ab1c2f1200300fa02fc2efa03f3954086
:102a940043ea0c0c94404fea154ea8b2bcfbfef876
:102aa400230c0efb18cc08fb00f943ea0c439945b0
:102ab40028d9eb1808f1ff3704d2994502d9a8f1b7
:102ac40002072b44a3eb0903a4b2b3fbfefc0efbe9
:102ad4001c330cfb00f044ea0344a04214d92c1923
:102ae4000cf1ff3304d2a04202d9acf102032c440e
:102af400241a43ea07401eb1d440002334607360b3
:102b0400bde8f0874746dde76346f1e792bb431b28
:102b140001214fea154eafb2b3fbfefc200c0efbb5
:102b24001c330cfb07f840ea0343984562d9eb18c1
:102b34000cf1ff3004d2984502d9acf102002b44c9
:102b4400a3eb0803a4b2b3fbfefc0efb1c330cfb8b
:102b540007f744ea0344a7424ed92c190cf1ff337a
:102b640004d2a74202d9acf102032c44e41b43ea89
:102b74000040c0e7c2f1200320fa03f195409040e1
:102b84002efa03f303434fea154eafb2b1fbfefc3a
:102b94000efb1c10190c0cfb07f841ea0041884598
:102ba40004fa02f422d969180cf1ff3004d28845e2
:102bb40002d9acf102002944a1eb08019bb2b1fb9c
:102bc400fefc0efb1c110cfb07f743ea01439f427a
:102bd4000ed9eb180cf1ff3104d29f4202d9acf1ab
:102be40002012b44db1b41ea004192e76046e3e724
:102bf4006146f7e76046a3e76346b7e7834206d931
:102c040016b9002108467be7c6e900e0f9e7b3fa04
:102c140083f78fb9834201d3724508d8beeb02040f
:102c240060eb030301209c461eb9002168e7384687
:102c3400fae7c6e9004cf8e7c7f1200cbb4022fada
:102c44000cf41c432efa0cf120fa0cf3b8400143a7
:102c54004fea14490efa07f5b3fbf9f81ffa84fe9c
:102c640009fb18300b0c08fb0efa43ea00439a45a3
:102c740002fa07f240d9e31808f1ff3004d29a456a
:102c840002d9a8f102002344a3eb0a0389b2b3fbdf
:102c9400f9f809fb183308fb0efe41ea03418e459f
:102ca4002cd9611808f1ff3304d28e4502d9a8f15a
:102cb4000203214443ea0040a0fb0298a1eb0e0169
:102cc4004145ce46434602d306d14d4504d2b9eb25
:102cd400020e68eb04030138002ea6d0b5eb0e02f9
:102ce40061eb030101fa0cfc22fa07f34cea03033b
:102cf400f940c6e9003198e74046c5e74346d9e7bd
:020000040000fa
:020000040040ba
:102d0400002800f0048170b50446002900f0f98021
:102d1400097803780d2b00f2f080dfe803f0071147
:102d24001c2d39434a55767e868ac1d301f0f001c1
:102d3400c02901d00820e5e003f084ff012321e04d
:102d4400de2901d102231de0724803f063fe204610
:102d540003f078ff4be042788a4205d100f5877092
:102d640004f056fa03230de06b4803f053fe2046ab
:102d740003f068ff0420c5e0418000f5877004f08b
:102d840047fa042323700023a4f808310220b9e091
:102d9400438843ea0123438000f5877004f038fa3e
:102da4000523efe7017100f5877004f031fa06237b
:102db400e8e7c18000f5877004f02afae388002b65
:102dc40014bf07230823dde7b0f80831fe2b14d81d
:102dd4005a1ca0f808210344197200f5877004f006
:102de40017fab4f80821e3889a4200f08c8023781b
:102df400002b14bf0220082084e0484803f00afe98
:102e0400204603f01fff09207ce080f80a1100f53a
:102e1400877004f0fdf90923b4e780f80b1100f57d
:102e2400877004f0f5f90a23ace7c0f810110b23fe
:102e3400a8e7d0f8103143ea0123c0f8103100f5b7
:102e4400877004f01eff0546d4f81061b3b29842af
:102e54005bd094f80b3194f80a21a17904f10800ad
:102e640002f0f0fd012807d1012384f80c312c482d
:102e740003f0d0fd0c2385e7b2b22946294803f0bc
:102e8400c9fdd4f8c43113b15a6901325a612179a8
:102e9400204603f0ddfc204603f0d4fe062031e09a
:102ea400da2901d10d236de71f4803f0b3fdd4f8ef
:102eb400c43113b19a6901329a61204603f0c2fe0b
:102ec40007201fe0ed290dd0184803f0a3fdd4f826
:102ed400c43113b19a6901329a61204603f0b2fefb
:102ee40007200fe000230370a0f80831c28841884e
:102ef4000f4803f08ffd032004e003f0a3fe01203c
:102f040000e0012070bd08233ce70c233ae70120d0
:102f1400704700bfe00f4000f40f40001410400061
:102f24002c1040004c104000701040009c104000d9
:042f340084104000c5
:020000040000fa
:020000040040ba
:102f38002de9f04383b00d9ebdf83870002800f0ed
:102f4800e78088461d4604462eb927b10125284644
:102f580003b0bde8f083ff2f00f2dc80d4f83031f5
:102f68001bb19847002840f0d780d4f8283133b1f6
:102f7800984707f10d039bb29842c0f0c38001a89f
:102f880004f08ffec0238df80730d4f820310df1fe
:102f980007009847de238df80730d4f820310df16b
:102fa8000700984763788df80730d4f820310df181
:102fb800070098479df8071001a804f027f98df835
:102fc8000780d4f820310df1070098479df80710c5
:102fd80001a804f01bf94fea18218df80710d4f85e
:102fe80020310df1070098479df8071001a804f05b
:102ff8000df98df80750d4f820310df107009847e6
:103008009df8071001a804f001f95ffa87f98df817
:103018000790d4f820310df1070098479df8071064
:1030280001a804f0f3f897b1354607eb060815f840
:10303800013b8df80730d4f820310df1070098478f
:103048009df8071001a804f0e1f84545efd10df10e
:1030580003030df102024946304603f05dff9df877
:1030680002308df80730d4f820310df10700984769
:103078009df8071001a804f0c9f89df803308df8f1
:103088000730d4f820310df1070098479df8071054
:1030980001a804f0bbf801a804f0f1fd05468df87d
:1030a8000700d4f820310df1070098472d0a8df854
:1030b8000750d4f820310df107009847da238df82e
:1030c8000730d4f820310df107009847ed238df82b
:1030d8000730d4f820310df107009847d4f8c431ef
:1030e80093b11a6801321a60d4f8c43173b15a68be
:1030f8003a445a600025d4f83431002b3ff427af06
:10310800984724e70925f6e70025f4e70025f2e7c4
:0c31180001251ce709251ae70b2518e724
:020000040000fa
:020000040040ba
:103124002de9f04786b0bdf83890002800f0bd8046
:103134000e4690460546d0f8cc41002c00f0b780ee
:1031440033b9b9f1000f03d0012006b0bde8f08710
:10315400b9f1ff0f00f2ad80277807f07f0784f8fc
:103164000771b9f1000f32d1a4f80291a4f80461f7
:1031740084f806814b4632463946504803f04afcef
:103184004ff000084ff0010a00266670a670d5f8cb
:10319400cc0190f8073190f80621b0f80411b0f88a
:1031a40002c1cdf810c003300390cdf808a00196f9
:1031b40000962846fff7befed5f82c316bb1984730
:1031c400064618f0ff0f0ad14ff0000952e04a46b4
:1031d4001946e01c04f090fbc6e70026f1e74246de
:1031e4003946374803f016fcd5f8c431002bebd030
:1031f4005a6a01325a62e7e73946324803f00afc58
:103204002378013303f07f032370d4f80c31002baf
:1032140051d0394628469847002096e739462a482f
:1032240003f0f8fbd5f8c43113b15a6b01325a6379
:1032340008f10108b8f1040fa6d103223946234846
:1032440003f0e8fbd5f8c43113b1da6b0132da6369
:10325400d4f8103113b139462846984723780133fe
:1032640003f07f03237001206fe74846801bb0f50d
:10327400967f0ed2284600f005f96378002bbbd167
:10328400a378002bcad1d5f82c31002bedd0984768
:10329400ece739460e4803f0bdfbd5f8c431002bea
:1032a400c6d01a6a01321a62c2e701204de7012032
:1032b4004be7092049e7002047e700bfd81040004a
:1032c400fc104000201140003c11400070114000ef
:0432d400581140004d
:020000040000fa
:020000040040ba
:1032d8002de9f04f87b0002800f0be800e46154655
:1032e8000446002900f0b88000f5805393f8243292
:1032f800002b00f0b780022a40f2b78091f80080d6
:103308004f7891f802b00192cdf800b03b464246a2
:103318004ff48071564803f07bfbb8f1000f1bd1c6
:1033280094f8080a50b12246002392f80814b942ca
:1033380018d00133603299b28842f6d839464d48e0
:1033480003f066fb00230193009301235a46394694
:10335800204600f0dffa81e0474803f059fb4ff0c0
:1033680000087be0dab2102ae8d0dab2049202eb65
:10337800420304eb431303f2094339463f4803f081
:1033880047fbc4f80c4a84f8107a84f811ba04f59b
:1033980080594ff0000389f8203289f8213241f230
:1033a800142aa24404f612214ff4006203915046f5
:1033b80004f0e1fb636804f60c2205929a600a2186
:1033c800606803f037fd6068fdf73cff4ff00002ce
:1033d80089f8202289f821224ff400620399504687
:1033e80004f0c9fb032d0bd006f10209013d16fac2
:1033f80085f519f8011f606803f01cfda945f8d18f
:103408000a21606803f016fd6068fdf71bff04f5ec
:10341800805393f820327bb9049b03eb430304ebfe
:103428004313d3f8643413b100210598984704f581
:103438008053012283f82022504604f02afb04f529
:1034480080530190039a009293f821325a463946e4
:10345800204600f05ffa01e04ff00108404607b04f
:10346800bde8f08f4ff00308f8e74ff00408f5e7e0
:10347800200e4000800e40005c0e4000b80e400058
:020000040000fa
:020000040040ba
:103488002de9f04184b0002800f0c7800446d0f848
:1034980038311bb19847002840f0c180d4f82c314e
:1034a800abb198470546d4f824311bb10df10f0094
:1034b800984770b12178002900f0a680d4f81c3113
:1034c800eb1ab3f5967f00f28f8008259de0002562
:1034d800e9e7c4f81c510df10f012046fff70efc77
:1034e8000546032840f09180d4f8c43193b19a6816
:1034f80001329a60d4f8c43163b1e188da680a44c9
:10350800da6094f80c312bb1d4f8c43113b11a69cc
:1035180001321a61d4f8cc31002b37d004f10806f7
:10352800e38832466188204601f0cef800286cd145
:10353800e788d4f8c881b8f1000f0ed00097334659
:10354800628800212046c04794f8c01100295cd049
:103558006088234604ebc1010ae00097334662887d
:1035680000212046fdf76dfeeee708338b424cd074
:10357800b3f840218242f8d1d3f84481b8f1000f62
:10358800f3d03a4631462046c0473ee0d4f8c861f9
:103598007eb1e388009304f1080362880021204685
:1035a800b04794f8c01181b36088234604ebc10189
:1035b8000ce0e388009304f10803628800212046a8
:1035c800fdf73ffeede708338b421ed0b3f84021ec
:1035d8008242f8d1d3f84461002ef4d0e28804f195
:1035e80008012046b04710e00e4803f011fad4f85d
:1035f800c43113b1da690132da61204603f020fbe5
:10360800c4f81c510a2500e00825d4f83c3103b160
:103618009847284604b0bde8f0810125f9e70b2555
:08362800f7e700bfb0104000fd
:020000040000fa
:020000040040ba
:103630002de9f04f89b09846129b002b18bf002a45
:1036400000f0a38006460d469146002800f09d80bc
:1036500000f5805292f82422002a00f09a8090f817
:10366000087a67b1844600249cf808e4ae4551d03e
:1036700001340cf1600cbc42f6d10f2f72d807eb6d
:10368000470a06eb4a1a8af80854caf8643407eb6a
:103690004704640104f2094bb344172249465846d3
:1036a00004f0d0fa00238af82034b8f1000f5ed07d
:1036b00004f221403f224146304404f0c3fa002284
:1036c0008af86024cdf80cb004f22143334404930b
:1036d00001238df8143004f58164344406942e4b94
:1036e000079308ab13e903008de8030003ab0ecb8f
:1036f000706803f0d9f9002841d096f8083a0133f0
:1037000086f8083a4b462a463946244803f084f99d
:1037100000203be004eb440a06eb4a1acaf8643482
:1037200004eb44077f0107f2094017224946304461
:1037300004f088fa00238af82034b8f1000f09d089
:1037400007f221403f224146304404f07bfa002238
:103750008af860244b462a46e1b2114803f05cf92e
:10376000002013e00f4803f057f902200ee007ebaa
:10377000470306eb4313002283f82124a2e74946be
:10378000094803f049f9022000e0012009b0bde832
:10379000f08f0320fae700bf6d784000e00d400095
:0c37a0002c0d4000740d40009c0d4000fa
:020000040000fa
:020000040040ba
:1037ac0000287dd070b582b00c460546002971d03a
:1037bc000b6b002b70d04b6b002b6fd0442632461a
:1037cc00002104f03df9ac46a646bee80f00ace87b
:1037dc000f00bee80f00ace80f00bee80f00ace82d
:1037ec000f009ee803008ce80300012385f84130ac
:1037fc002c4b1d602c4a4ff40071206b03f00cff16
:10380c002a4b00932a4b2b4a4021606bfff70aff8f
:10381c00294b0093294b2a4a4121606bfff702ff89
:10382c00284b0093284b294a4221606bfff7fafe84
:10383c00274b0093274b284a4321606bfff7f2fe7e
:10384c00264b0093264b274a3146606bfff7eafe66
:10385c00254b0093254b264a4521606bfff7e2fe72
:10386c00244b0093244b254a4621606bfff7dafe6c
:10387c00234b0093234b244a4721606bfff7d2fe66
:10388c004ff40073fb220221204803f0bff8002004
:10389c0002b070bd0120fbe70120f9e70120f7e73a
:1038ac0001207047084b4020c1474000153f4000a5
:1038bc00800740008c0740001141400094074000f5
:1038cc00a807400009434000b0074000c40740006f
:1038dc008d494000cc074000e007400039604000b3
:1038ec00e8074000f407400089544000fc07400002
:1038fc000808400005684000100840001c08400003
:10390c002161400024084000340840004008400079
:020000040000fa
:020000040040ba
:10391c002de9f04fadf5477d05908b4690469946c5
:10392c00ddf840c3bdf8445375b19cf800301c461b
:10393c001a1d954254d300200746014606460df544
:10394c008c7e82461a4627e00023adf818310123fd
:10395c000493ddf810a000245346a246cdf840c3d2
:10396c001e465be0184480b20b4499b2f82808d983
:10397c00ff2e06d0731ccf1b2ef816700f46deb22e
:10398c0050468d4220d94b1cab421dd81cf801204f
:10399c005418231dab4217d86444a378e47843ea47
:1039ac000423043313449bb20028dbd01a1892b2c0
:1039bc00f92ad7d9ff2e54d0721ccf1b2ef81670b3
:1039cc000f46d6b25046cde748b1ff2e07d0731c38
:1039dc00dbb20493c91b46ab23f81610b9e72eb91a
:1039ec000023adf8183101230493b2e70496b0e735
:1039fc00062501340295019600944b4642465946e1
:103a0c001c4803f003f8009506abff2240f20111ad
:103a1c000598006803f071feb44227d046ab33f82a
:103a2c00147001238df818308df819b08df81a80a8
:103a3c008df81b90049b8df81c308df81d40002fc9
:103a4c00d6d0d09b002bd3d03a4603eb0a010df114
:103a5c001e0003f04dffbd1dadb257441ffa87fa8f
:103a6c00c7e75a1818460f4691b28ae70df5477dfd
:083a7c00bde8f08f7c0c400056
:020000040000fa
:020000040040ba
:103a84002de9f043adf2044d0646884615461c4622
:103a9400ddf82074c3684ff400720deb0201404658
:103aa400984700285bd1dff80c914a468099394841
:103ab40002f0b0ff809b4b455ad122469df8281254
:103ac400354802f0a7ff9df82832a34253d12a4675
:103ad4008399324802f09eff839b013b9d424dd95e
:103ae40008f50078424684992d4802f093ff849ba0
:103af400984546d14ff4007422460deb0401684604
:103b040003f0fafe002307932146684603f058f9b0
:103b14000446879a0146234802f07cff879ba34210
:103b240023d1839a4146304602f068fb0446869ac4
:103b340001461d4802f06eff869ba34224d11b4818
:103b440002f068ff1fb34ff400720deb0201384618
:103b540003f0d2fe00200df2044dbde8f0831448ba
:103b640002f058ff6ff00300f5e76ff00300f2e78f
:103b74004ff0ff30efe76ff00100ece76ff0020069
:103b8400e9e76ff00500e6e76ff00400e3e70020e3
:103b9400e1e700bfc8094000f4094000180a4000ea
:103ba400440a4000740a4000a80a4000dc0a4000ad
:083bb400a0094000dec007b0cb
:020000040000fa
:020000040040ba
:103bbc002de9f04f8bb00d460493d1e901132f681a
:103bcc00d5f80c9003900029a8bf27f00207924665
:103bdc00b8bf012117f010020592dae9006232d069
:103bec0056ea02002fd0a3f1020b2c69029617f0b3
:103bfc00080004f1ff3418bf0bf1ff3b9046002284
:103c0c0009f8042006905a46012c1edc059a002a5d
:103c1c0051d1069a1ab1013c202209f804202a69d4
:103c2c0003980097013a121b09eb040102f096f875
:103c3c00039b5b68db0503d56b689842b8bf1846dd
:103c4c000bb0bde8f08f9b46cfe7029850ea080016
:103c5c0008d1a1eb0b001044002803dc002ad5ddb1
:103c6c00b807d3d50298049e00f00f000928a6f1de
:103c7c00410cd4bf30305730bcf1190f04f1ff3474
:103c8c000ed840f0200cacf1610cbcf1190f07d828
:103c9c00cde90813079203f07affdde90813079ac0
:103cac0009f804000298060946ea0870013a0290e5
:103cbc004fea1818a8e7dae900210a43a9d009eb62
:103ccc000402049902f8011c023c302209f8042079
:023cdc009fe760
:020000040000fa
:020000040040ba
:023cde00fee7ff
:020000040000fa
:020000040040ba
:103ce00008b5394b9847394b9847eff3108172b6b6
:103cf000374ad2f8883043f47003c2f88830bff3f3
:103d00004f8fbff36f8f01b962b6324b324a5a60a0
:103d10001a46936813f0010ffbd02e4bdb6813f4a7
:103d2000c07f15d02d4b0c221a602a4b2c4a5a60aa
:103d30001a46936813f0010ffbd0264b294a5a60ac
:103d40001a46936813f0010ffbd0274b274a1a60dd
:103d5000bff34f8fbff36f8f1d4cd4f8903223f019
:103d60000103c4f89032d4f8943223f00103c4f86c
:103d70009432bff34f8fbff36f8f03f075f91c4b75
:103d800023f07f03a3601b4b9847636913f4003f44
:103d900012d1bff34f8fbff36f8f0022c4f85022b0
:103da000bff34f8fbff36f8f626942f400326261dd
:103db000bff34f8fbff36f8f0f4b98470f4b984751
:103dc00003f074fefee700bfff6f4000ff6f40008e
:103dd00000ed00e0000c0e400d00005aec4a4020bf
:103de0000c08005a0c07005a00180e40010000a5ec
:103df00000004000a5664000ff6f4000ff6f4000dc
:020000040000fa
:020000040040ba
:103e000000286fd038b5044690f8413083b1364b66
:103e10001b789bb1344b00221a70344b1b78022b59
:103e200007d0334802f0f8fd0221204600f01cfec6
:103e300038bd03f09dfe2f4b1860f9e703f098fea4
:103e40002c4b1b68c11a294a1278012a15d9b1f5e1
:103e50007a5f3fd244f267221a44121a264ba3fb20
:103e600002329109254b1b68b3eb921fe0d0234b24
:103e70001960234802f0d0fddae7151e18bf0125ae
:103e8000002a14bf4ff47a524ff4fa628a4213d9cf
:103e900003f2e7331b1a1344174aa2fb03239a09c0
:103ea00016490968b1eb931fc2d0144b1a6029461a
:103eb000144802f0b1fdbbe72946134802f0acfdff
:103ec000042384f8383084f84050636a0f4a5069fc
:103ed0009847ade70e4802f09ffd0021204600f014
:103ee000c3fda5e7704700bf294b4020464c40204a
:103ef000a00840000c4b4020d34d6210404c4020a5
:103f000014094000d0084000f4084000483e40201a
:043f10004009400024
:020000040000fa
:020000040040ba
:103f140038b52d4b1b68002b52d001252b4b1d703f
:103f240000f608042a4a2b49204602f0defd2a4600
:103f34002949204603f04cfc02222849204603f07c
:103f440047fc4ff6ff722649204603f0cbfb4ff4a3
:103f540084022449204603f045f94ff4a40222497f
:103f6400204603f03ff9214a2149204603f03af95b
:103f7400204a2149204603f035f94ff400721f49c5
:103f8400204603f0affb104d2b6893f838201c49f2
:103f9400204603f01dfc2b6893f840201949204665
:103fa40003f016fcfb221849204603f011fc2b6891
:103fb4009b6a33b1984702461449204603f012f92c
:103fc40038bd4ff0ff32f7e7084b4020294b402023
:103fd40020064000280640002c064000340640001d
:103fe4003c064000440640004c06400000fe0f0022
:103ff4005406400000fe0d005c06400064064000cc
:104004006c06400090064000740640007c064000a8
:020000040000fa
:020000040040ba
:104014002de9f0410446c668b78d0fb30d46084636
:1040240003f084fa20bb00252f46dff8dc804146ec
:10403400204603f069fa736a5959204603f064fa7a
:104044002e49204603f060fa716a2944204603f0a1
:1040540073f901371435b38dbb42e8dcbde8f08158
:10406400274903f051fa2549204603f04dfaf5e7b4
:10407400012808d02349204603f046fa1f49204668
:1040840003f042faeae70121284603f04dfc80469a
:10409400756a00264146286803f05cfc40b101368d
:1040a4001435b742f6d14146204602f0a7ffd5e7c2
:1040b4006d6845b91249204603f026fa0f49204697
:1040c40003f022facae71049204603f01dfa4146dc
:1040d400204603f019fa094e3146204603f014fa3b
:1040e40023680921204698472946204603f00cfa04
:1040f4003146204603f008fab0e700bfa4044000ac
:0c41040024054000400540003c05400040
:020000040000fa
:020000040040ba
:10411000344b1b68002b63d02de9f0410446084660
:104120000121314b197001f0affbc7b2012f38d814
:10413000012f14bf4ff484084ff4a4082b4d2c4bcf
:10414000012f08bf1d4605f50075c6b22b46424635
:104150003146284802f060fc224b1b685b68294608
:104160004046984768bb1f4b1b680022da6383f800
:104170004070012583f83850186b02f065fd314618
:104180001d4802f049fc04f608042a461b49204653
:1041900003f037fa3a461a49204603f01bfbbde804
:1041a000f081032384f8153804f60804002213492b
:1041b000204603f026fa134a1349204602f097fce2
:1041c000ede7022384f81538064b1b68052283f8b7
:1041d00038200022094904f6080003f012fadee74d
:1041e000704700bf084b4020294b402000fe0f00c5
:1041f00000fe0d009c064000cc06400088064000f2
:0c420000900640008c064000980640002c
:020000040000fa
:020000040040ba
:10420c002de9f04f83b005460c461746104603f0d7
:10421c007bfbd4f80c80b8f82c307bb1064668b127
:10422c004ff0000bda465c46cdf800b001951be070
:10423c001ffa83fa13e0009b019d02e000239a46cb
:10424c009b462b60a5f804a0a5f806b0284603b041
:10425c00bde8f08f1ffa80fa00954ff0010b013486
:10426c00b8f82c30a342e6dda146d8f8243004eb94
:10427c00840253f82250284603f046fbd8f8282035
:10428c00135d23f0010313558642e8d87a1e691e8c
:10429c00134612f801ef11f801cfe645dfd10233d6
:1042ac00db1b9e42f4d8d8f8282012f8093043f0d2
:1042bc00010302f80930bbf1000fcbd0824515d8b1
:1042cc000bf1010b1ffa8bfbb8f82030d446534589
:1042dc00c5d2009a1a441d4412f8010b15f8011ba3
:1042ec008842a5d101336345f6d3b8e71ffa80faab
:0a42fc000bf1010b1ffa8bfbe6e744
:020000040000fa
:020000040040ba
:02430600fee7d0
:020000040000fa
:020000040040ba
:10430800324b1b68002b60d070b5adf5027d0546b9
:10431800084601212e4b197001f0b2fac4b2012ce3
:1043280031d8012c14bf4ff484014ff4a40102ab1f
:10433800009301232748284a9c4218bf0246234875
:104348000068fff79bfb05f608050646b0fa80f201
:1043580052092249284603f050f9224620492846a6
:1043680003f034fa304602f01ffa02461d49284687
:1043780002f0b9fbbeb1154b1b68052283f8382043
:104388000df5027d70bd032385f8153805f608057f
:1043980000221249284603f030f9134a13492846e7
:1043a80002f0a1fbece7094b1b68042283f83820d4
:1043b80083f84040059a0e49284602f011ff089af2
:1043c8000c49284602f00cffdae77047084b4020fa
:1043d800294b402000fe0f0000fe0d00880640001b
:1043e80090064000e40640008c0640009806400015
:0843f800ec064000f406400051
:020000040000fa
:020000040040ba
:1044000010b4384b0021c3f81411d3f8142142f42e
:104410008052c3f81421344a4ff4c06353606ff4e0
:10442000c06313604ff0ff3353651366c2f89030da
:10443000c2f8a030202010616ff02000506191631d
:10444000c2f8181102f50072136053651366c2f8c2
:104450009030c2f8a0304ff4805010616ff480505b
:1044600050619163c2f8181102f500721360536530
:104470001366c2f89030c2f8a030116153619163a5
:10448000c2f8181102f500724ff4603010674ff057
:10449000c060506700f5603050601448106053658c
:1044a0001366c2f89030c2f8a0304ff400201061bb
:1044b0006ff4002454619063c2f8181102f5007281
:1044c000136053651366c2f89030c2f8a03002231f
:1044d00013616ff0020353619163c2f818115df824
:1044e000044b704700800840000e0e40ff7ffcf92f
:020000040000fa
:020000040040ba
:1044f000324b1b78002b60d0f0b5314a1368013382
:104500001360304b1c780cb32f4b002294462f4e77
:10451000012703e001321833a24217d0197a01298a
:10452000f8d119780129f5d1596801315960dd6850
:10453000a942efd3c3f804c0c2f3421056f820508a
:1045400007fa02f1294346f82010e3e7204b1c78d4
:1045500024b3204b0022204d4ff0010c164603e0ff
:1045600001321433a24219d019780129f8d15968bf
:1045700001315960df68b942f2d3c2f3421e55f8e7
:104580002e700cfa02f1394345f82e105e60197a4c
:10459000022914bf002101211970e1e70f4b1b68ac
:1045a0001bb10e4a1368013b13600c4b5b681bb1d7
:1045b0000a4a5368013b5360f0bd7047284b4020c6
:1045c000fc4a4020274b402018464020044b402006
:1045d000264b4020ac484020004b4020e04a402081
:020000040000fa
:020000040040ba
:1045e0002de9f04f83b08846364b00211970002a20
:1045f00066d006461746dff8d09017e0bff34f8f1e
:10460000c9f85c52bff34f8fbff36f8f1ce08af382
:1046100010884ff0ff3003b0bde8f08fbff34f8f2d
:10462000bff36f8f2644a0443f1b47d026f00f05f1
:1046300006f00f0cccf11004bc4228bf3c46d9f860
:10464000143013f4803fd9d1bff34f8fbff36f8f76
:10465000eff3108a72b6dff874b095e80f008be8bc
:104660000f00224641460beb0c0003f047f92946a8
:10467000584602f0adf90028c9d002f0e5ff002845
:10468000fbd142f210730193019b5a1e01922bb190
:1046900000bf019b5a1e0192002bf9d18af31088aa
:1046a000d9f8143013f4803fb8d0bff34f8fc9f856
:1046b0005c52bff34f8fbff36f8fafe70020aae7c5
:1046c0000020a8e72b4b402000ed00e0b84a402036
:020000040000fa
:020000040040ba
:1046d000002869d070b588b00546d0f8cc61002eae
:1046e00064d04ff6fe7081422dd04ff6fd708142ae
:1046f0003bd04ff6fc73994249d02c7904f07f04eb
:104700008df81f40012304930df11f0203920293c1
:10471000002301930093ff224ff6fe712846fef717
:104720000bfc2146224802f077f9d5f8c43113b1c9
:104730009a6a01329a62013404f07f0486f80841d3
:10474000002008b070bd0bb90120fae7117801f024
:104750007f01184802f060f9d5f8c43113b1da6a64
:104760000132da6201207070ebe70bb90120e8e753
:10477000117801f07f01104802f04ef9d5f8c431ec
:1047800013b15a6b01325a630120b070d9e70b485c
:1047900002f042f9002386f8083133707370b37069
:1047a000a6f802310120cce7002070470020c8e7be
:1047b000e811400098114000ac114000c4114000c5
:020000040000fa
:020000040040ba
:1047c000f8b5334b1d6815b195f8413003b9f8bd04
:1047d000304b0120187095f83830022b16d8042a77
:1047e000f5d90e68a6f58403b3f5801f16d3a6f598
:1047f000a403b3f5602f31d33146274802f00cf9fa
:1048000001223146284602f0c9fee0e7032aded93c
:1048100002460968284602f0c1fed8e700274ff497
:1048200084001e4b034403f50073141fa4b2a219a5
:104830009a4218d8ab682246043130469847e8b906
:10484000eb6b2344eb6385f84070022385f8383026
:1048500000223146284602f0a1feb8e701274ff4b6
:10486000a4000f4bdee71a4639460e4802f0d4f892
:1048700001223146284602f091fea8e70122314686
:10488000284602f08bfe052385f838309fe700bfed
:10489000084b4020294b40202807400000fe0f0015
:0848a00000fe0d00540740006a
:020000040000fa
:020000040040ba
:1048a80030b597b02a4c684602f0a8f904f5907e16
:1048b800ec46bce80f00aee80f009ce80f008ee85d
:1048c8000f000121204602f0b1fb2249204602f0e8
:1048d8006dfd2149204602f05dff204d2146284606
:1048e80000f030fb284601f0fdf908a802f040fe70
:1048f8001494159508a91a48fef754ff0d9b2bb37d
:104908009847014608a800f013fe154802f054f92c
:104918000221144802f07cf840f201124ff4807131
:10492800114802f075f81149114802f071f8114b5d
:10493800db6b13f4806f1049104b18bf19461048f1
:1049480002f066f800f0e8ff17b030bdff21d9e7a4
:1049580048444020984740209c4940202028402037
:10496800e4494020ec0340003c044000a40140001e
:104978006804400000140e40e4034000dc034000db
:044988008004400067
:020000040000fa
:020000040040ba
:10498c002e4b1b68002b57d070b5adf5027d04463d
:10499c00084601212a4b197000f070ffc5b2012d99
:1049ac0027d8012d14bf4ff484014ff4a40102ab9e
:1049bc00009301232348244a9d4218bf02461f48f6
:1049cc000068fff759f8064618bb04f608040122e4
:1049dc001e49204602f00ffe2a461d49204602f0d1
:1049ec00f3fe164b1b685b6a079898470df5027d22
:1049fc0070bd032384f8153804f60804002213490b
:104a0c00204602f0f8fd134a1349204602f069f8db
:104a1c00ece7022384f8153804f6080400220b494d
:104a2c00204602f0e8fd304601f0bcfe02460a4981
:104a3c00204602f056f8d9e7704700bf084b4020db
:104a4c00294b402000fe0f0000fe0d0088064000a0
:0c4a5c00900640008c06400098064000c8
:020000040000fa
:020000040040ba
:104a680030b585b005460c462a4b197003f07cf822
:104a7800294b1860294b4ff0ff321a60012c01d9dd
:104a880005b030bd4cbb264b00930123254a4ff49b
:104a980084012846fef7f2ff034688b9204a936945
:104aa8000393d3680293536a019313890093d388bd
:104ab8009288211e18bf01211b4801f0a9ffdfe7da
:104ac800184601f071fe02460021184801f0a0ffc7
:104ad80001212846fff7c4ffd2e7114b00930123b9
:104ae800134a4ff4a4012846fef7c8ff03460028de
:104af800d4d0184601f058fe024601210b4801f0b7
:104b080087ff0c4801f084ff02212846fff7a8ff21
:104b1800b6e700bf464c40200c4b4020404c40209c
:104b2800483e402000fe0f0090054000c8054000a8
:084b380000fe0d00ec05400039
:020000040000fa
:020000040040ba
:104b40002de9f04182b02b4cb4f86c300093636ec9
:104b5000294a0121201d02f0d1fab4f870300093e7
:104b6000a36e264a022104f1340002f0c7fa0025a0
:104b700084f8745084f87550a567e567dff8948071
:104b80002146404603f01cf81d4f2146384603f0ed
:104b900011f8e1261b4b9e60b4f8ec300093d4f87a
:104ba000e430194a032104f1840002f0a7fab4f8b2
:104bb000f0300093d4f8e830144a042104f1b40032
:104bc00002f09cfa84f8f45084f8f550c4f8f850d8
:104bd000c4f8fc5080342146404602f0fdff2146d7
:104be000384602f0f3ff0a4b9e60284602b0bde84b
:104bf000f08100bf304b40201c12400028124000c2
:104c0000596f4000001a0e4034124000401240001c
:084c100000080e405d5e40004b
:020000040000fa
:020000040040ba
:104c180070b50468a4f10153b3f5c02f00d970bd75
:104c28000646456800f088fd72b600234ff0e02282
:104c3800136129484ff0ff3100eb8302c2f880105e
:104c4800c2f880110133082bf6d126f07f06234bda
:104c58009e605b6913f4803f24d0204b0022c3f888
:104c68008420bff34f8fd3f88030c3f3c90ec3f34a
:104c78004e334fea431c43f6e07618480cea060127
:104c8800734641ea8372c0f87422013bb3f1ff3fd7
:104c9800f7d1acf1200c1cf1200fefd1bff34f8fef
:104ca800bff36f8f0d4b5b6913f4003f0bd0bff35d
:104cb8004f8fbff36f8f094b0022c3f85022bff309
:104cc8004f8fbff36f8fbff34f8fbff36f8f84f397
:104cd8000888a847fee700bf00e100e000ed00e01b
:020000040000fa
:020000040040ba
:104ce8002de9f84f9a46ddf8289052ea090355d085
:104cf8008b46174602f088fe0546002851d0036807
:104d08004ff480721a6002f0ddfd4f4534bfa9eb05
:104d180007084ff00008b844284602f033fa002884
:104d280041d0b8f1000f1dd0002634460ee02846c9
:104d380002f03ffa002838d02b689b69baf1000fbf
:104d480001d00af806300136a0450bd0a7422b68df
:104d58008cbf1bf80420ff22da610134b145e6d884
:104d6800a04512d802f05eff04462b685b6913f475
:104d7800007f11d102f056ff001b6b689842f4d3f4
:104d8800ab680133ab60032009e0284602f0faf96a
:104d98000028dbd1032002e0002000e00120bde86c
:0e4da800f88f0120fbe70320f9e70320f7e76f
:020000040000fa
:020000040040ba
:024db600fee716
:020000040000fa
:020000040040ba
:104db8002a4a116a2a4b0b431362936e13f0010fb0
:104dc800fbd0264a116a274b0b431362936e13f4e8
:104dd800803ffbd0214a116a234b0b431362936e29
:104de80013f4003ffbd01d490b6a204a1a40204ba0
:104df80013430b620a46936e13f4003ffbd0174b24
:104e08001c4a9a621a46936e13f0020ffbd0134a9b
:104e1800136b23f070031363936e13f0080ffbd02a
:104e28000e4a136b23f4407343f480731363936e39
:104e380013f0080ffbd0094a136b23f0030343f068
:104e480002031363936e13f0080ffbd0034b0a4a57
:104e58001a614ff48052c3f80021704700060e40d3
:104e680001ff370000003701080037008fffc8ff37
:0c4e780020003700013f1320809c030045
:020000040000fa
:020000040040ba
:104e84002de9f843294b1b78002b4cd00327dff87e
:104e9400b48026e001341835202c1dd00123a34012
:104ea4003342f7d0224a1178e2b29142f2d9697ab8
:104eb400fab29142eed12a78012aebd1d8f8002037
:104ec40022ea0303c8f800302b6998472b7a022b97
:104ed400e0d100232b70dde7013f7fb2b7f1ff3f44
:104ee40004d0d8f80060134d0024d7e7124b1f6894
:104ef400124d0024012604e0984701341435202c77
:104f040011d006fa04f33b42f7d00d4a1178e2b20d
:104f14009142f2d908490a6822ea03030b602b691b
:104f2400002be9d1e9e7bde8f88300bf284b402016
:104f3400274b402018464020004b4020ac484020de
:084f4400264b4020044b4020e5
:020000040000fa
:020000040040ba
:104f4c00002853d070b586b00c46054600294bd0ce
:104f5c0041f22822002102f073fd2e4646f8084b40
:104f6c0002f0faf90df1040e8446bce80f00aee82d
:104f7c000f00dcf80030cef800301123adf80e3005
:104f8c006023adf80830adf80a300023adf80c30d2
:104f9c008df8163004964ff48063adf8143001a8e8
:104fac0000f032f86860d0b1114b03606b68114aa5
:104fbc005a6005f58053012283f824220e4b1d60a4
:104fcc000e4a4ff48071204602f026fbf923602232
:104fdc0010210b4801f01afd002006b070bd0948e5
:104fec0001f014fd0120f8e70120f6e701207047dd
:104ffc00c372400047764000104b4020d5794000ea
:08500c00e80c4000c00c40005c
:020000040000fa
:020000040040ba
:1050140070b588b0054602f03ff8ec68002c51d01a
:1050240002462b8a834250d36e890021204602f027
:105034000bfd04f11003e36004f148032362aa8822
:10504400033222f003021344e362ea88033222f0bb
:10505400030213446363721c92b202eb820103ebfa
:105064008103a363033222f00302134463612b8997
:105074002383ab7c2bb194f8433043f0200384f8b2
:105084004330ab8823850023a384e384ea886286c3
:10509400a3876a890132e28784f842302a68226150
:1050a400a4f8443003ad0a4e0fce0fc533682b600d
:1050b40008ab13e903008de8030003ab0ecb2046d5
:1050c40001f0f0fc204608b070bd0024fae700bff0
:0450d4009879400087
:020000040000fa
:020000040040ba
:1050d80070b506460568446800f02efb72b60023da
:1050e8004ff0e022136129484ff0ff3100eb8302b3
:1050f800c2f88010c2f880110133082bf6d126f0cf
:105108007f06234b9e605b6913f4803f24d0204bbd
:105118000022c3f88420bff34f8fd3f88030c3f345
:10512800c90ec3f34e334fea431c43f6e0761848e2
:105138000cea0601734641ea8372c0f87422013b07
:10514800b3f1ff3ff7d1acf1200c1cf1200fefd1e8
:10515800bff34f8fbff36f8f0d4b5b6913f4003fa5
:105168000bd0bff34f8fbff36f8f094b0022c3f8eb
:105178005022bff34f8fbff36f8fbff34f8fbff333
:105188006f8f85f30888a047fee700bf00e100e0c5
:0451980000ed00e046
:020000040000fa
:020000040040ba
:10519c00902910b50fdc7f2913dd8039102910d828
:1051ac00dfe801f02b2b360f110f0f0f200f0f0f15
:1051bc000f0f0f0f3600c02944d0f02942d0a02980
:1051cc0021d000200de019682ab10a1d1a60b1f92e
:1051dc000030da1702e00c1d1c600b88c0e90032ad
:1051ec00012010bd196822b10a1d1a6091f9003016
:1051fc00efe70c1d1c600b78f0e71968f2b10a1d83
:10520c001a600b68e5e71a68111d19601368e0e76e
:10521c00196852b1073121f0070101f108021a6037
:10522c00d1e90023c0e90023dae7ca1d22f0070206
:10523c0002f108011960d2e90023f3e70c1d1c6090
:10524c000b68cbe71a68111d196013680360002303
:04525c004360c5e7ff
:020000040000fa
:020000040040ba
:1052600053ec102bc3f30a512de9f04140f2fd70cd
:105270004c1e84429e4640d8a1f2ff30002833db0a
:1052800033282ddc244c4ff0ff3cc0f1200615469e
:10529000a1f21f4104fa06f22cfa00fc4cea020cbf
:1052a00024fa01f24cea020cc44003ea040805eabd
:1052b0000c0757ea080725ea0c0223ea04030fd07b
:1052c000002b0dda4ff4801404fa06f624fa01f1eb
:1052d0000e43b61824fa00f444eb03043246234686
:1052e00043ec102bbde8f0819fed090bbfee007b76
:1052f000002b20fe070bbde8f0810029f0d10a4603
:1053000003f0004343ec102bece700bfaff3008049
:0c5310000000000000000000ffff0f0084
:020000040000fa
:020000040040ba
:10531c00f0b583b00646c468e26901466846fef7fc
:10532c006fffbdf80450bdf80630bbb1012b3ed069
:10533c00238cab4214d22a460099e06902f0d8fac9
:10534c00e36900275f55238ca28e9b1ae1691944ef
:10535c00304602f0d5f825842586a78603b0f0bd2b
:10536c00304601f0e5faa38db3b100273d4604e0c9
:10537c0001351437a38dab420edda36a5b5d13f0d0
:10538c00010ff5d0636ad959304602f0b9f80d49ce
:10539c00304602f0b5f8ebe72168304602f0b0f881
:1053ac00e169304602f0acf8238c2386d6e72a4616
:1053bc000099e06902f09cfae36920225a55013504
:0853cc00adb2bde7a4044000ee
:020000040000fa
:020000040040ba
:1053d4002de9f041bdf81880e0b117461e46054698
:1053e400047abcb9d9b10b78b3b10134e4b2224622
:1053f400085d08b1ff2cf8d1b5f806c0a888a0eb69
:105404000c0008f10403234480b29bb2984209d2f1
:1054140001232b72bde8f0811c460022ece7012336
:105424000372f7e72b680cf10100e88003f80c40e5
:10543400e8882b68184402f05ffaeb881c44a4b295
:105444002b68621cea801f552a68eb88591ce98086
:1054540002f803802a68eb88591ce9804fea182176
:10546400d154002ed6d0b8f1000fd3d0eb882868e1
:1054740042463146184402f03ffaeb889844a5f8b6
:045484000680c7e7f0
:020000040000fa
:020000040040ba
:10548800254b1b68002b46d070b5bcb004460d46b2
:105498000121224b1970284600f0f2f90646022134
:1054a800284600f0edf936b348b3f02828bff020bd
:1054b8000546194b1b68db682a46694630469847fb
:1054c800f8b904f6080401221549204602f095f8b7
:1054d80032461449204601f083feadb22a461249ed
:1054e800204602f0fdf82b466a461049204602f095
:1054f80077fa3cb070bd032384f81538f9e7f02536
:10550800d7e7022384f815380022054904f6080075
:1055180002f073f8ede77047084b4020294b402014
:10552800880640000c074000140740001807400098
:020000040000fa
:020000040040ba
:1055380030b585b00c46054608b38369fbb10c222b
:1055480001a94ff480709847c8b9224b04aa12e900
:10555800070083e807005a1c03f1090112f8013f0c
:10556800013bdbb2fd2b14d98a42f7d1194b1b88ba
:105578007bb9194b4ff0ff321a605a6009e0154b9e
:1055880000221a609a604ff0ff32c3f80220c3f875
:105598000620104802880132034623f8092b0230fe
:1055a80013f8012d5a708342fad10a4b9c7093e884
:1055b800070004ab03e9070035b1eb6923b10c22fe
:1055c80001a94ff480709847044b01221a7005b066
:1055d80030bd00bfd44a4020d64a40202c4b402042
:020000040000fa
:020000040040ba
:1055e80000294ad010b582b086460846002a41d024
:1055f800234b1b7823b3234b5b6913f4803f15d0ef
:10560800002a13dd0ef01f011144bff34f8f7346bc
:105618001c4c7144c4f85c322033a1eb030cbcf180
:10562800000ff7dcbff34f8fbff36f8fbff34f8fc0
:10563800bff36f8f714602f05df9002002b010bd14
:10564800114b4ff0b441596019468b6813f0010fa4
:10565800fbd042f210730193019b591e01912bb1ab
:1056680000bf019b5c1e0194002bf9d1044b012162
:105678001970c0e74ff0ff30e0e74ff0ff30704798
:0c5688002b4b402000ed00e0000c0e4019
:020000040000fa
:020000040040ba
:10569400002949d0f0b583b004460a46254b0021c1
:1056a400197041f6ff7313445f0b6ff30c04b3f5e9
:1056b400005f2bd30d4608e086f310884ff0ff30cf
:1056c40003b0f0bd0135af4220d9eff3108672b6b6
:1056d400204601f0f5fd0028eed001f0b3ff0028cc
:1056e400fbd186f3108801f0bffd04f5005442f2ab
:1056f40010730093009b5a1e0092002be2d000bf4f
:10570400009b5a1e0092002bf9d1dbe70a4b019350
:10571400019b5a1e019253b100bf019b5a1e019274
:10572400002bf9d10020cbe74ff0ff307047002069
:0c573400c6e700bf2b4b4020404b4c0050
:020000040000fa
:020000040040ba
:1057400082b0244b0193244b5b6913f4007f09d191
:105750002149019b5a1e019223b100bf4b6913f4ea
:10576000007ff6d01c4b4ff0ff32da60ac221a609b
:10577000184b0193194b5b6913f4007f09d117494a
:10578000019b5a1e019223b100bf4b6913f4007fa5
:10579000f6d0124b4ff0ff32da60ac221a600d4b9c
:1057a00001930f4b5b6913f4007f09d10c49019bf6
:1057b0005a1e019223b100bf4b6913f4007ff6d04b
:1057c000074b4ff0ff32da604ff4d6721a6002b026
:1057d000704700bf20a1070000080e40001a0e40cd
:0457e00000c00240c3
